:2070000010CE21004F1F8B4FBDF18CBDF181863EBDF1A4BDF1B5BDF1A48144271E814C27F7
:2070200017814D273F815027528147272C863FBDF1A4BDF1817EF00B7EF08DBDF17CBDF10E
:207040001E3410BDF17CBDF11E3510BDF181BDF0C7BC010C2BF87EF00BBDF11EBDF17CBED7
:20706000010C6E84BDF11EBDF17CBDF17ABDF12C301FA784A18426477EF00B10FF0108BEBE
:207080000108C609BDF17A5A26FA7EF00BBDF1B5815326F9BDF1B581392729813126EE7FF5
:2070A000010ABDF12C8002B7010B8D72BDF12C7A010B2706A784300120F27C010A27CE86AA
:2070C0003FBDF1A47EF00BBDF163BDF17C3410C610BDF17A5A26FA3510BDF17C863ABDF1D2
:2070E000A48610A60081202B0A817F2A06BDF1A47EF0F8862EBDF1A430015A26E6BDF18126
:2071000039BDF1B53402BDF1A4350281302BB581392F0A81412BAD81462EA98007398D0CFF
:20712000B7010C8D07B7010DBE010C398DD3484848481F894D8DCA840F3404ABE01F894D17
:20714000FB010AF7010A3944444444840F8B30813923028B077EF1A4A6008DEBA6008DEBD0
:207160003001393410350234028DDC35028DDC350234028DD235028DD2398DDC86207EF1D2
:20718000A4860DBDF1A4860ABDF1A4398680B7036B860CB703688600B703698603B7036B15
:2071A000B7036C393402B6036D8420810027F73502B7036839B6036D8401810027F7B6033C
:0271C00068392C
:027FFE00F00091
:00000001FF
