:2070000010CE21004F1F8B4FBDF18CBDF181863EBDF18DBDF19EBDF18D8144271E814C273C
:2070200017814D273F815027528147272C863FBDF18DBDF1817EF00B7EF08DBDF17CBDF125
:207040001E3410BDF17CBDF11E3510BDF181BDF0C7BC010C2BF87EF00BBDF11EBDF17CBED7
:20706000010C6E84BDF11EBDF17CBDF17ABDF12C301FA784A18426477EF00B10FF0108BEBE
:207080000108C609BDF17A5A26FA7EF00BBDF19E815326F9BDF19E81392729813126EE7F23
:2070A000010ABDF12C8002B7010B8D72BDF12C7A010B2706A784300120F27C010A27CE86AA
:2070C0003FBDF18D7EF00BBDF163BDF17C3410C610BDF17A5A26FA3510BDF17C863ABDF1E9
:2070E0008DC610A60081202B0A817F2A06BDF18D7EF0F8862EBDF18D30015A26E6BDF1812B
:2071000039BDF19E3402BDF18D350281302BB581392F0A81412BAD81462EA98007398D0C2D
:20712000B7010C8D07B7010DBE010C398DD3484848481F894D8DCA840F3404ABE01F894D17
:20714000FB010AF7010A3944444444840F8B30813923028B077EF18DA6008DEBA6008DEBE7
:207160003001393410350234028DDC35028DDC350234028DD235028DD2398DDC86207EF1D2
:207180008D860DBDF18D860ABDF18D39393402B6036D8420810027F73502B7036839B6036D
:0B71A0006D8401810027F7B6036839F9
:027FFE00F00091
:00000001FF
