:207C000010CEC0004F1F8B4FBDFD8CBDFD81863EBDFD8DBDFD9EBDFD8D8144271E814C2755
:207C200017814D273F815027528147272C863FBDFD8DBDFD817EFC0B7EFC8DBDFD7CBDFDD1
:207C40001E3410BDFD7CBDFD1E3510BDFD81BDFCC7BCFDB02BF87EFC0BBDFD1EBDFD7CBED7
:207C6000FDB06E84BDFD1EBDFD7CBDFD7ABDFD2C301FA784A18426477EFC0B10FFFDACBE36
:207C8000FDACC609BDFD7A5A26FA7EFC0BBDFD9E815326F9BDFD9E81392729813126EE7F47
:207CA000FDAEBDFD2C8002B7FDAF8D72BDFD2C7AFDAF2706A784300120F27CFDAE27CE8606
:207CC0003FBDFD8D7EFC0BBDFD63BDFD7C3410C610BDFD7A5A26FA3510BDFD7C863ABDFD89
:207CE0008DC610A60081202B0A817F2A06BDFD8D7EFCF8862EBDFD8D30015A26E6BDFD81EF
:207D000039BDFD9E3402BDFD8D350281302BB581392F0A81412BAD81462EA98007398D0C09
:207D2000B7FDB08D07B7FDB1BEFDB0398DD3484848481F894D8DCA840F3404ABE01F894D2B
:207D4000FBFDAEF7FDAE3944444444840F8B30813923028B077EFD8DA6008DEBA6008DEB8F
:207D60003001393410350234028DDC35028DDC350234028DD235028DD2398DDC86207EFDBA
:207D80008D860DBDFD8D860ABDFD8D39393402B6FE6D8420810027F73502B7FE6839B6FE58
:127DA0006D8401810027F7B6FE68393B000000000000B0
:0E7FF200FDABFC00FC00FDABFC00FC00FC0045
:00000001FF
