S1230800A90FA020A209200301A200BD19089D0081E8E000D0F5ADFF0300000000000000B3
S12308200000000000000000000000000000000000000000000000000000000000000000B4
S1230840000000000000000000000000000000000000000000000000000000000000000094
S1230860000000000000000000000000000000000000000000000000000000000000000074
S123088000000000000000000000000000000000000000000000000000C300A000000000F1
S12308A0000000000000000000000000000000000000000000000000000000000000000034
S12308C0000000000000000000000000000000000000000000000000000000000000000014
S12308E00000000000000000000000000000000000000000000000000000000000000000F4
S12309000000000000000000000000000000000000000000000000000000000000000000D3
S12320003E00D378000000D37C000000C3000052455455524E494E4720544F20524F4D573B
S10B202042572043502F4D24C8
