S120D3E1DE8EDE9ADE6DDE7AD3FDD3FDDE3EDE3EDE3EDE33DE3FDE5DDE4CDE433BC1
S123DE007EDEBB7EDEEF7EDF117EDF657EDF847EDFCE7EDFD97EDF4B7EDF587EDF2E000042
S123DE2000000002020202000000000000000000000000860A8D15860D8D117EFC0B393481
S123DE400235827DDEB92720AD9FDEB93402B6FE6D8420810027F73502B7FE68393402B6B4
S123DE60FE6D840181003582BDDE6D20DFB6FE6D8401810027F7B6FE6839338C35EE442788
S123DE800CA6D4A54627F610AEC46ED8023B34708D142704EF04AF2435F034708D0826042D
S123DEA0AE04AF4435F0338C0931C4AC442706EE4426F61CFB390000010000340234028629
S123DEC052BDDE4C3502B6DE1F8101270981022710C61F57358234028646BDDE4C3502207C
S123DEE0F034028652BDDE4C350235027EE0E2340234028657BDDE4C3502B6DE1F810127C8
S123DF000981022707C61F57358220F935027EE15634028656BDDE4C3502B6DE1F810127BF
S123DF200881022706C61F573920FAC6003934028653BDDE4C3502B6DE1F81012708810283
S123DF402706C61F573920FAC6003934028649BDDE4C3502BDDFE93934028677BDDE4C35D2
S123DF6002BDE1AE3934028672BDDE4C35028D14B6DE1F8101270881022706C61F57392080
S123DF80FAC6003934028644BDDE4C3502A60381042505C61F5735908EDE233086E684C19D
S123DFA0012706C102270220EAF7DE1FB7DE1E8EDE273086E684F7DE208EDE2B483086E66F
S123DFC084F7DE213001E684F7DE22C6003934028643BDDE4C350220AB34028651BDDE4C56
S123DFE0350220A000000000008EE32CBDCE7BBDCD24BDE0D4261D8EE334BDCE7BCCFE604C
S123E000FDDFE78EDFE7BDCD45BDE1AEBDE03A25037EE01D8EE33BBDCE7B7EE036BDCD245C
S123E0208EE348BDCE7B8600BDE0858EE359BDCE7B8601BDE085BDCD24398600B7FE60BDBD
S123E040E1D9253E860FBDE2C91F18844081002731860ABDE2C91F1881012626860BBDE2A1
S123E060C91F188101261B860CBDE2C91F1881002610860DBDE2C91F18810026051CFE7E7B
S123E080E0841A01398401484848488AE01F8986001F01860EBDE2EEBDE1D92525860F8E62
S123E0A000ECBDE2EEBDE2022518BDE2328EE36ABDCE7B8EE3EDBDCD458EE3EBBDCD457E7D
S123E0C0E0CE8EE33BBDCE7BBDCD241A0139BDCD241CFE39BDE31E8600B7FE60B6FE6081EB
S123E0E00039342034101F92BDE108351026171F288401C6001F02C600A6A9E373A78031FC
S123E100215CC10026F335A0BDE2A5B6E372B1E36F2613B6E371B1E36E260BB6E370B1E36A
S123E1206D2603C60039BDE1D92528BDE262860F8E0020BDE2EEBDE2022518BDE232B6E369
S123E14072B7E36FB6E370B7E36DB6E371B7E36EC60039C60F39342034101F92BDE10826FC
S123E160401F288401C6001F02C600A680A7A9E37331215CC10026F3BDE1D92524860F8EAB
S123E1800030BDE2EEBDE2022517BDE24ABDE1D9250F86FFB7E36FB7E36DB7E36EC60035B5
S123E1A0A0C6FFF7E36FF7E36DF7E36E35A08600B7E372B7E370B7E37186FFB7E36FB7E37A
S123E1C06DB7E36E8680B7FE628E0100301F8C000026F98600B7FE623934128600B7DFE503
S123E1E0B7DFE6860FBDE2C91F188480270F7CDFE526F07CDFE626EB1A017EE1FF1CFE35C1
S123E200923934328600B7DFE5B7DFE6860FBDE2C91F1884888108271584018101270A7C93
S123E220DFE526E87CDFE626E31A017EE2301CFE35B2108E00008608BDE2CCAFA9E373319C
S123E240213121108C020026ED39108E0000AEA9E373312131218608BDE2EE108C0200268F
S123E260ED39B6DE208401484848488AE01F8986001F01860EBDE2EE8600F6E3711F0186CC
S123E2800DBDE2EE8600F6E3701F01860CBDE2EE8600F6E3721F01860BBDE2EE8E000186AE
S123E2A00ABDE2EE3954442402CA80F7E372B7E370FCDE2154442402CA80F7E3712408B6FC
S123E2C0E3708A80B7E3703939BDE310B7FE628A40B7FE623402F6FE60B6FE611F013502C3
S123E2E0B7FE628840B7FE628600B7FE6239BDE31E34021F10F7FE60B7FE613502B7FE6272
S123E3008A20B7FE628820B7FE628600B7FE623934028600B7FE628692B7FE6335823402B3
S123E3208600B7FE628680B7FE6335825050494445203A0420494F3D307804204E4F5420C5
S123E34050524553454E5404205050494445303A20424C4F434B533D0420505049444531B6
S116E3603A20424C4F434B533D04307804000000000000A1
