S120D3E1DE8EDE9ADE6DDE7AD3FDD3FDDE3EDE3EDE3EDE33DE3FDE5DDE4CDE433BC1
S123DE007EDEBB7EDED47EDEED7EDF1D7EDF337EDF777EDF8A7EDF157EDF197EDF01000063
S123DE2000000000000000000000000000000000000000860A8D15860D8D117EFC0B393489
S123DE400235827DDEB92720AD9FDEB93402B6FE6D8420810027F73502B7FE68393402B6B4
S123DE60FE6D840181003582BDDE6D20DFB6FE6D8401810027F7B6FE6839338C35EE442788
S123DE800CA6D4A54627F610AEC46ED8023B34708D142704EF04AF2435F034708D0826042D
S123DEA0AE04AF4435F0338C0931C4AC442706EE4426F61CFB3900000100003402B6DE1F32
S123DEC08101270981022707C61F57358220F935027EE0BA3402B6DE1F810127098102273B
S123DEE007C61F57358220F935027EE12EB6DE1F8101270881022706C61F573920FAC600DE
S123DF0039B6DE1F8101270881022706C61F573920FAC60039BDDFAB39BDE186398D14B6EE
S123DF20DE1F8101270881022706C61F573920FAC600393410A60381042505C61F57359054
S123DF408EDE233086E684C1012706C102270220EAF7DE1FB7DE1E8EDE273086E684F7DEFA
S123DF60208EDE2B483086E684F7DE213001E684F7DE22C6003590A6038101270881022767
S123DF8006C61F573920FAC60039A6038101270881022706C61F573920FAC600393402BD5E
S123DFA0CFD83502BDCFDC390000008EE2FEBDCD1EBDCD24BDE0AC261C8EE307BDCD1ECCA3
S123DFC0FE60BDDF9D1F98BDDF9DBDE186BDDFFB25037EDFDE8EE30FBDCD1E7EDFF7BDCD92
S123DFE0248EE31DBDCD1E8600BDE0468EE32FBDCD1E8601BDE046BDCD24398600B7FE6026
S123E000BDE1B1253E8608BDE2A81F188440810027318608BDE2A81F18810126268608BD7C
S123E020E2A81F188101261B8608BDE2A81F18810026108608BDE2A81F18810026051CFEC3
S123E0407EE0451A0139340234028401484848488AE08E00001F818608BDE2CABDE1B125B1
S123E0603386088E00ECBDE2CABDE1DA2526BDE20A8EE341BDCD1EB6E3C6BDDF9DB6E3C53C
S123E080BDDF9DB6E3C4BDDF9DB6E3C3BDDF9D35027EE0A435028EE30FBDCD1EBDCD24359D
S123E0A0021A0139BDCD2435021CFE39BDE2F58600B7FE60B6FE60810039342034101F9288
S123E0C0BDE0E0351026171F288401C6001F02C600A6A9E34BA78031215CC10026F335A0C3
S123E0E0BDE284B6E34AB1E3472613B6E349B1E346260BB6E348B1E3452603C60039BDE195
S123E100B12528BDE24886088E0020BDE2CABDE1DA2518BDE20AB6E34AB7E347B6E348B7B7
S123E120E345B6E349B7E346C60039C60F39342034101F92BDE0E026401F288401C6001F07
S123E14002C600A680A7A9E34B31215CC10026F3BDE1B1252486088E0030BDE2CABDE1DA02
S123E1602517BDE229BDE1B1250F86FFB7E347B7E345B7E346C60035A0C6FFF7E347F7E394
S123E18045F7E34635A08600B7E34AB7E348B7E34986FFB7E347B7E345B7E3468680B7FE32
S123E1A0628E0100301F8C000026F98600B7FE623934128600B7DFA9B7DFAA8608BDE2A87A
S123E1C01F188480270F7CDFA926F07CDFAA26EB1A017EE1D71CFE35923934328600B7DFAD
S123E1E0A9B7DFAA8608BDE2A81F1884888108271584018101270A7CDFA926E87CDFAA26E0
S123E200E31A017EE2081CFE35B2108E00008608BDE2A81F10A7A9E34B3121E7A9E34B3132
S123E220211F218C020026E639108E0000A6A9E34B3121E6A9E34B31211F018608BDE2CA13
S123E2401F218C020026E639B6DE208401484848488AE08E00001F818608BDE2CAB6E349DD
S123E2601F818608BDE2CAB6E3481F818608BDE2CAB6E34A1F818608BDE2CA8E00018608F4
S123E280BDE2CA3954442402CA80F7E34AB7E348FCDE2154442402CA80F7E3492408B6E3DF
S123E2A0488A80B7E3483939BDE2ECB7FE628A40B7FE623406F6FE60B6FE611F01350688AB
S123E2C040B7FE628600B7FE6239BDE2F534061F10F7FE60B7FE613506B7FE628A20B7FEF4
S123E2E0628820B7FE628600B7FE623934028692B7FE63358234028680B7FE63358250505B
S123E300494445203A240020494F3D30582400204E4F542050524553454E542400205050D2
S123E320494445303A20424C4F434B533D2400205050494445313A20424C4F434B533D2422
S10EE340003058240000000000000022
