S120D3E1DE8EDE9ADE6DDE7AD3FDD3FDDE3EDE3EDE3EDE33DE3FDE5DDE4CDE433BC1
S123DE007EDEBB7EDED17EDEE77EDF0F7EDF247EDF687EDF7A7EDF0D7EDF0E7EDEFA0000C3
S123DE2000000000000000000000000000000000000000860A8D15860D8D117EFC0B393489
S123DE400235827DDEB92720AD9FDEB93402B6FE6D8420810027F73502B7FE68393402B6B4
S123DE60FE6D840181003582BDDE6D20DFB6FE6D8401810027F7B6FE6839338C35EE442788
S123DE800CA6D4A54627F610AEC46ED8023B34708D142704EF04AF2435F034708D0826042D
S123DEA0AE04AF4435F0338C0931C4AC442706EE4426F61CFB3900000100003402B6DE1F32
S123DEC08101270981022707C61F57358220F920F73402B6DE1F8101270981022707C61F87
S123DEE057358220F920F7B6DE1F8101270881022706C61F573920FA20F8B6DE1F810127C9
S123DF000881022706C61F573920FA20F839398D13B6DE1F8101270881022706C61F573903
S123DF2020FA20F83410A60381042505C61F5735908EDE233086E684C1012706C102270284
S123DF4020EAF7DE1FB7DE1E8EDE273086E684F7DE208EDE2B483086E684F7DE213001E658
S123DF6084F7DE22C6003590A6038101270881022706C61F573920FA20F8A603810127088C
S10FDF8081022706C61F573920FA20F83A
