S123C4002005822E893A818639B7D3FDCCCD03FDCC16BDDE3F8EC4B1BDCE79BDCD24BDCD25
S123C42024BDDE158EC840BDDE0F8601A784BDD4062709A6018104263B7ECD03108EC080B2
S123C44010BFCC14C680BDD40626295A2726A7A0810D26F28604A784BDD4067ECD06BDCD42
S123C460483410250DA6A45D1A012704A6611CFEA7A035868EC49EBDCE797ECD0334148ED2
S123C480C4D586042006800AA7848601AB828A30A784813922F03594BDDE3E86023943612E
S123C4A06E27742072756E20535441525455502E04464C455820666F72204E48594F4459E4
S123C4C04E454D2056657273696F6E20322E393A322004343834384B2072616D04044461F9
S123C4E0746520616E642054494D4520284D4D2F44442F59592048482F4D4D2F5353293F8D
S109C50020047EC4003992
S115C70039393939393939393939393939393939393921
S104C71B0019
S116C840FF0000007374617274757000747874007EC40726
S123CC0008183A185000000800001B0001000000000000000000000000000000000000002A
S11CCC2000000000000000000000000000010000000000000000000000F6
S104CC476088
S123CC4CCCAA574841543F0443414E2754205452414E53464552044E4F5420464F554E4474
S123CC6C044449534B204552524F522023044452495645204E4F54205245414459044745D4
S123CC8C5400D2194D4F4E00D35500271003E80064000A6572726F727300007379732B2B51
S105CCAC2B0453
S104CCC03936
S104CCD8391E
S104CCE43912
S123CCF801000000000000007ECD577ECD677ECDAB7EDE6D7EDE6D7EDE4C7EDE4C7ECEF5AA
S123CD187ECF3B7ECE2A7ECE797ECFE77ECEAF7ED0087ECDE47ED0307ED1AF7ED0E57ED380
S123CD38537ECF807ECFCE7ED2897ED13C7ECFCA7ED1857ED3337EDE5D7ECDFF7ECDFF106C
S123CD58CEC07F7FCC11BDD4007FCC28BDD3FD10CEC07FBDDE188ECD03BFCC168EC700AFEA
S123CD789FD3E9BED3E7AF9FD3EB8ECCF8BFCC2F7FCC327FCC4A8D54B6CC11B1CC0226057C
S123CD987CCC15200E7DCC28102605A1BDD40326B28D7ABDD0CE810D27EB8EC8407CCC0D46
S123CDB8BDD03025168ECC8A8D3E2709BECC1227078D3526036E9801BDD2388ECC4E8615BA
S123CDD8B7CC20BDCE797FCC117ECD67BECD13BFCD10BECD0DBFCD0A7FCC237FCC227FCCF4
S123CDF8217FCC267FCC2439108EC844A6A0815F23028020A18026086D8426F06DA4270CAE
S123CE186D8026FC30026D8426DE1CFB39BECC4C8D4F8EC080BFCC14BDCEF5B1CC0127ED3F
S123CE38B1CC002718810D270D810A272B811F23E78CC0FF27E2A780810D26DC398CC080C1
S123CE5827CB301FB6CC07810826088620BDCF60B6CC07BDCF6020C0860DBDCF3B8620202E
S123CE78D08D34A68481042771BDCF3B300120F3BDCD4E2767BDCD09847FB1CC0A265D7F2E
S123CE98CC1ABDCD09847FB1CC0A2750810D26F27FCC116E9FCC167DCC2126278DD2B6CC73
S123CEB8032720B1CC1A22187FCC1A7DCC0927028DCD3404F6CC0827058D085A26FB35048A
S123CED87CCC1A860D8D5C860A8D583404F6CC0527064F8D4E5A26FA35041CFE397DCC231B
S123CEF8261A7DCC2627108D1A7DCC2D27117DCC24270C8D532008BDCD092003BDCD0C7F68
S123CF18CC1A39BFCC45BECC262006BFCC45BECC24BDD4062604BECC45397FCC24BDD28962
S123CF387ECD037DCC212620811F22057FCC2920177CCC293402B6CC04270BB1CC29240636
S123CF58BDCEAF7CCC29350234027DCC2226137DCC2427048DB5200D7DCC262608BDCD0FBC
S123CF782003BDCD123502397FCC48F7CC1D8604B7D40DEC848ECC978D0B30027AD40D2625
S123CF98F71F98203D7FCC4910A3002507A3007CCC4920F43402B6CC4926107DCC48260BB6
S123CFB87DCC1D270B86208D2320057CCC488D1235828D023001A6008D04A6002004444413
S123CFD84444840F8B30813923028B077ECF3B81302514813923168141250C815A230E8109
S123CFF8612504817A23061A01B7CC11391CFE393410BECC14B6CC18B7CC19A680B7CC1853
S123D018810D2710B1CC02270BBFCC1481202604A10027E78DB935908615A70186FFA703E8
S123D0386F046F0CBDD0CE8608B7CC498D34252E260F8D2E25282609BCCC3D276C8D232386
S123D05868BECC3D6D0427616D032A0F7DCC0D2705B6CC0B2003B6CC0CA7037FCC0DBECC97
S123D0783D398D8C254381392215BECC3D6D032A388403A703BDD008242F812E1CFE39F602
S123D098CC492B253404C005F7CC493504B1CC4725028020A70430015ABDD0082408812D9D
S123D0B82704815F26065D26E41A01395D27CB6F0430015A20F6BFCC3DBECC14A600812052
S123D0D82604300120F6BFCC14BECC3D393430E60C261F318DD10C810F2217C6033D31AB43
S123D0F8C603A6A0B1CC4725028020A70C30015A26F035B062696E747874636D646261733E
S123D11873797362616B7363726461746261636469727072746F757472656C726669646585
S123D13876617263BDD228BDD00825228D2625183404C60478CC1C79CC1B5A26F73504BB77
S123D158CC1CB7CC1C5C20DFBDD00824FB39BECC1B1CFE39815F2302802080472A0C8B06B9
S123D1782A048B072A048B0A2AE71A0139BDD228BDD00825D9813922CF840F34043402FCB9
S123D198CC1B58495849F3CC1B5849EBE08900FDCC1B35045C20D97FCC1D8D3D8102271518
S123D1B8811626F68D33B7CC1E8D2EB7CC1F8601B7CC1D20E58D221F898D1E1E89F3CC1B33
S123D1D8FDCC3B8D141F894D27D08D0DBECC3BA780BFCC3B5A26F320C18EC840BDD40627AE
S10BD1F811A6018108260E3284
S123D200628604A700BDD406260A1CFE39B7CC20810427728D737ECDDE86008D35250F8D6A
S123D220077CCC4A8D8920F14F5FFDCC1B39F6CC4A1027FB9E7ECD0386028D228DEABDD1F9
S123D240AFF6CC1D27046E9FCC1E8ECC5486817ECDD834028EC840BDD0303502251A8EC8ED
S123D26040BDD0E58EC8408601A700BDD1F1102500BB86FFA7883B39B6CC11810D2707B19D
S123D280CC021026FB4D1A01393430A601B7CC202763BDCDE410BECC2B2608811027581031
S123D2A08ECC9F8EC8406D0227098604A700BDD406262E8EC838C60B8D6E8EC840B6CC0BA3
S123D2C0A7038601A700BDD4062616B6CC204A47474C6F8820A788218615A700BDD4062772
S123D2E01E8ECC6DBDCE79BECC3DB6CC20A7016F005FBDCF8035B08ECC7ABDCE7920F6BDC6
S123D300CEAF8EC840B6CC204A8403C63F3DCB04E78822BDD40626C9BDCF3B810D26F48666
S123D32004A700BDD40620CD34307ED0FA8ECC637ECDDB3506FDCC4110FFCC437FCC207CE1
S123D340CC287ECDB27FCC2810FECC43F6CC206E9FCC413A397DCCFC26046E9FDE338EC8F6
S10ED36040861BA701BDD2897ECD676B
S123D3E1DE8EDE9ADE6DDE7AFDABFDABDE3EDE3EDE3EDE33DE3FDE5DDE4CDE437EC4007E89
S10BD401D43A7ED45D7ED47F91
S123D435FF00000000BDDE158ED409C60A8D118E0005BFD413BFD4157FD41A8ED41BC61AA0
S123D4556F805A26FB7EC70CBDC709BED40927EB3088E4BFD40B3420BDDADB352024ECBE9B
S123D475D40B6F02BDC70CC6FF397DCCFC2703BDC7093424BFD40B6F01E6842622E6022792
S123D4951AC1022711BDD5BDBED40B25267DCCFC26235F352439BDD6D820EDC6122014C163
S123D4B5162304C601200C5A588ED4D2AD95BED40B2402E701BDC70C6D01352439D990D97E
S123D4D5E3DB11DADBD5EBD826D841D880D64AD6A8D973DBEEDB44D6A2DA9FD819D578D5AA
S123D4F599DB1FDDD6DD14DCFE8D212605C6021A0139ED84AE846F846F01398D0F2705C640
S123D5150D1A0139EC9800ED841CFE39FCD40BC3001C8ED40910AE8426031CFB3910A38432
S123D535260139AE8420EEBED40B4F5F8D02C62FA7881130015A26F839BED40BC60BA60429
S123D555A7882430015A26F639BED40BC60BA6048A203402A688248A20A1E0260530015A54
S123D57526EC39BED40BE602542479E688237ED609BED40BE688226C88223AA788405C2675
S123D5951F1A0139BED40BE602C403C1032655CA80E702E60FC580260AE688233AA788409D
S123D5B51CFE39C60B1A0139A6883B2B3C27076A883B8620201D8D31251B8118221527F6E1
S123D5D58109260C8D23250DBED40BA7883B20D84D27E31CFE39BDDAC9250985012705A704
S123D5F5847ED9AAC6121A0139BED40BE68822270A6C88223AA688401CFE398D0324EA391B
S123D615BED40BEC88406C882126036C882010830000271CED881E34028604A7882235029D
S123D6358D132410C5802704C6102006C6092002C6081A01398D25BED40BBDDF7825128D57
S123D65511BDDE0026031CFE3934048D17350424EE39BED40BEC881E308840394FB7D411DE
S123D675B7D41239C5102611C5802624F6D4115CC1052705F7D41120147FD411F6D4125C4B
S123D695C107270CF7D412BED40BBDDE091CFE391A01398DC7BED40BBDDF782520BED40BCA
S123D6B58DB0BDDE03260AB6D4352737BDDF112732C540260B34048DAB350424E039C62021
S123D6D51A0139BED40BE6883B2B3D8120260F5CE7883BC17F260C200D8D0B24E6395D2755
S123D6F52720F61CFE393402C10126048620201086098D143502250F3402BED40BA6883BB2
S123D7156F883B8D03350239BED40BE602C1021026FED1E68822C104260834028D213502D3
S123D735250FBDD586240AC604BED40BE788221CFE39BED40B4F5FED8820ED88422027E647
S123D75588122622E6881727446F88178D3F252A8DE025268DDC2522BED40BC602E7881762
S123D775EC88117EDC9A8D0EBED40BED8840BDD6A8241A7EDBD98D03EC8439BED40BE603C0
S123D79586063D8ED41D3ABFD41B6D84398DE72605C6071A0139BED40BED88136D88122604
S123D7B503ED88116C881626036C88156D8817270BBDDC5B25DDBED40BEC8813BDD6292552
S123D7D5D2BED40BEC884034068DB03506ED84260A6F026F036F046F05200810AE04313F96
S123D7F510AF044FBED40B6C882126036C88205FA7884030015A26F8BED40BEC8820ED88F2
S123D815421CFE395F3404C603200EBED415BFD413F6D4133404F6D414BED40BE78841350A
S123D83504E788407FD4185FE7882239BED40BE68822261EBDD6152531BED40B7DD41826ED
S123D85506CC0005FDD4188610A78822EC881EED882FA68822A78831C6183414BDD5FE3537
S123D87514A70430015A26F21CFE39BED40BA68831A78822C6183414A604BDD71D35143093
S123D895015A26F27ED6A8BED40BA603A78823B6D4177DD41A2631A703BED415BFD4138C82
S123D8B50005270C8D222337BED418BFD41320EFBED40BA68823A7032A0EBDDDD625368D87
S123D8D507231CBDDDC620F2BED40B7FD41ABDD54EBDD826BDD8412407C10827181A013975
S10ED8F5BED40BA604270C2A028D0FE2
S123D900BDD55E26E41CFE398D051CFB1CFE39A68833260CEC882FED8832A68831A788341B
S123D92039BDD79026178D182515C60610BED40BBED41BA6A85D3121A7805A26F61CFE3957
S123D940BDD819BDD6152508BED40BC610E7882239BDD7908DEA25F8C60610BED40BBED440
S123D9601BA680A7A85D31215A26F6BDD6A824E07EDBD9BED40B8602A702EC882FED881E79
S123D980BDD64A2508BDD88024057EDBD9C60A39BDD4FE253DBDD89C2538263BBED40B7D06
S123D9A0D41A2706A60F85202629BDDCD9252AEC8811ED8840BDDA8EE6881727133404BDCB
S123D9C0D6153504250C5A26F4BED40B5FE788221CFE39C6112002C6043404BDD5103504C4
S123D9E01A0139BED40B6D032A08BDDDD62403C61039BDD4FE25E2BDD53CBDD92125DABD13
S123DA00D89C25D52604C60320CFBDDCD925CABED40BC60A6F0F30015A26F9BED40BEC88AB
S123DA20322734ED882FA68834A78831FCCC0EED8819B6CC10A7881BA6038ED436A686BE84
S123DA40D40BA78818BDDDC6BDD973258C8D3F8604A788221CFE39BED40B6F88176C8812D7
S123DA60EC882FBDD629250DBDD77B2508BDD6A82406BDDBD97ED9D9BED40BEC881EED882B
S123DA80328610A78834BDD95125EA7EDA0ABED40BA684A7026F846F883B4FA78822398D04
S123DAA028250E6F84441025FB6BC604E788221CFE39BED40BA6028183260B8603A702BD1E
S123DAC0D6A8102501131CFE398DE7250DBED40BA602810323F0C6121A01398DEC2531812A
S123DAE0022708BED40B6F027ED510A688122605BDDBBF20198DC82517BED40B6D88172724
S123DB0005BDDCB0250ABDD9732505BDD95124D339BDD9902528BDD615252386032018BD59
S123DB20D990251ABED40BA60F85802612EC8813BDD62925098602BED40BA7021CFE39C652
S123DB400B1A01398D35BDD89C252A2724BED40BC60BA68824A70430015A26F68D4D2515AF
S123DB60BED40BA60F858026D6856026098D0C2055C6031A0139C60C1A0139BED40B860BBB
S123DB80B7D411A604E68835A78835E70430017AD41126EFBED40BA60C260CC603A6883DEF
S123DBA0A70C30015A26F6BED40B398DCEBDD89C25072606BED40B1CFE39C6041A0139BE81
S123DBC0D40B86FFA704BDD973BED40B8600A70239ED8840BDD6A82414C5402608C580275D
S123DBE00AC6102006C60B2002C60A1A0139BDD921255E8DB8255ABED40BA60F8580265237
S123DC0085602652BDD790BED41BEC02260FBED40BEC88112733BED41BED842014BED40B44
S123DC20BDD629252CBED40BEC8811271C8DA22520BED40BEC8813BED41BED02BED40BECB1
S123DC408815BED41BE304ED04BDDBBF2503BDD95139C60B2002C60C1A0139EC881E5CE117
S123DC60883C2303C6014C10A38813260EA6883781FF27074CA788371CFE398D332530BE36
S123DC80D40BA6883A8B032616EC881E10A388112705C6171A0139EC8840ED88388604A7A2
S123DCA0883AEC8813ED88358601A788371CFE39EC8838BDD62925F7BED40B1F12E6883A33
S123DCC0123AC603A6A8353121A7884030015A26F3BDD6A824D97EDBD9BDD819BDD615255E
S123DCE046BED40B4F5FED8820A68867A7883C5F6F884030015A26F8BED40B1CFE39BED439
S123DD000BA68817271DEC88208300012A037EDDB3ED8820BDDAC9250E4624076F84A6885E
S123DD20172605C6121A01397FD411EC881110AE8820276ABDDDB825EE4F5F6D022774EB89
S123DD40028900BFD40FBED40B10A38820242CBED40F30033402B6D4114CB7D411815427C1
S123DD600881A83502274C20D23404BED40BEC88408D45253E3504350220C0A38820BED4E7
S123DD800FA6023404A0E04A1F89A684EB01BED40B2505E1883C2306E0883C4C20F5BDD6DB
S123DDA0292514BED40BEC884210A388202714C6192002C6181A0139BDD6292508BED40B5B
S123DDC0C6443A1CFE39BED40BC60BA68824A70430015A26F639BED40BA6034C8104240F13
S117DDE0A7032605BDDE0F2003BDDE1225E839C6101A01396C
S123DE007EDEBB7EDEEF7EDF117EDF5D7EDF787EDFBE7EDFC97EDF4B7EDF547EDF2E00007A
S123DE2000000002020202000000000000000000000000860A8D15860D8D117EFC0B393481
S123DE400235827DDEB92720AD9FDEB93402B6FE6D8420810027F73502B7FE68393402B6B4
S123DE60FE6D840181003582BDDE6D20DFB6FE6D8401810027F7B6FE6839338C35EE442788
S123DE800CA6D4A54627F610AEC46ED8023B34708D142704EF04AF2435F034708D0826042D
S123DEA0AE04AF4435F0338C0931C4AC442706EE4426F61CFB390000010000340234028629
S123DEC052BDDE4C3502B6DE1F8101270981022710C61F57358234028646BDDE4C3502207C
S123DEE0F034028652BDDE4C350235027EE0D2340234028657BDDE4C3502B6DE1F810127D8
S123DF000981022707C61F57358220F935027EE14634028656BDDE4C3502B6DE1F810127CF
S123DF200881022706C61F573920FAC6003934028653BDDE4C3502B6DE1F81012708810283
S123DF402706C61F573920FAC600398649BDDE4CBDDFD9398677BDDE4CBDE19E398672BD90
S123DF60DE4C8D14B6DE1F8101270881022706C61F573920FAC600398644BDDE4CA6038155
S123DF80042505C61F5735908EDE233086E684C1012706C102270220EAF7DE1FB7DE1E8E85
S123DFA0DE273086E684F7DE208EDE2B483086E684F7DE213001E684F7DE22C60039340287
S123DFC08643BDDE4C350220AF34028651BDDE4C350220A400000000008EE31CBDCE7BBD48
S123DFE0CEAFBDE0C4261D8EE324BDCE7BCCFE60FDDFD78EDFD7BDCFCABDE19EBDE02A25C2
S123E000037EE00D8EE32BBDCE7B7EE026BDCEAF8EE338BDCE7B8600BDE0758EE349BDCEA2
S123E0207B8601BDE075BDCEAF398600B7FE60BDE1C9253E860FBDE2B91F18844081002760
S123E04031860ABDE2B91F1881012626860BBDE2B91F188101261B860CBDE2B91F18810019
S123E0602610860DBDE2B91F18810026051CFE7EE0741A01398401484848488AE01F89861B
S123E080001F01860EBDE2DEBDE1C92525860F8E00ECBDE2DEBDE1F22518BDE2228EE35AB5
S123E0A0BDCE7B8EE3DDBDCFCA8EE3DBBDCFCA7EE0BE8EE32BBDCE7BBDCEAF1A0139BDCE39
S123E0C0AF1CFE39BDE30E8600B7FE60B6FE60810039342034101F92BDE0F8351026171FA4
S123E0E0288401C6001F02C600A6A9E363A78031215CC10026F335A0BDE295B6E362B1E3E6
S123E1005F2613B6E361B1E35E260BB6E360B1E35D2603C60039BDE1C92528BDE252860FFA
S123E1208E0020BDE2DEBDE1F22518BDE222B6E362B7E35FB6E360B7E35DB6E361B7E35E4C
S123E140C60039C60F39342034101F92BDE0F826401F288401C6001F02C600A680A7A9E398
S123E1606331215CC10026F3BDE1C92524860F8E0030BDE2DEBDE1F22517BDE23ABDE1C924
S123E180250F86FFB7E35FB7E35DB7E35EC60035A0C6FFF7E35FF7E35DF7E35E35A0860077
S123E1A0B7E362B7E360B7E36186FFB7E35FB7E35DB7E35E8680B7FE628E0100301F8C0076
S123E1C00026F98600B7FE623934128600B7DFD5B7DFD6860FBDE2B91F188480270F7CDFEA
S123E1E0D526F07CDFD626EB1A017EE1EF1CFE35923934328600B7DFD5B7DFD6860FBDE274
S123E200B91F1884888108271584018101270A7CDFD526E87CDFD626E31A017EE2201CFED4
S123E22035B2108E00008608BDE2BCAFA9E36331213121108C020026ED39108E0000AEA94B
S123E240E363312131218608BDE2DE108C020026ED39B6DE208401484848488AE01F8986EA
S123E260001F01860EBDE2DE8600F6E3611F01860DBDE2DE8600F6E3601F01860CBDE2DE8B
S123E2808600F6E3621F01860BBDE2DE8E0001860ABDE2DE3954442402CA80F7E362B7E3D8
S123E2A060FCDE2154442402CA80F7E3612408B6E3608A80B7E3603939BDE300B7FE628AE0
S123E2C040B7FE623402F6FE60B6FE611F013502B7FE628840B7FE628600B7FE6239BDE381
S123E2E00E34021F10F7FE60B7FE613502B7FE628A20B7FE628820B7FE628600B7FE623998
S123E30034028600B7FE628692B7FE63358234028600B7FE628680B7FE633582505049446A
S123E32045203A0420494F3D307804204E4F542050524553454E5404205050494445303A43
S123E34020424C4F434B533D04205050494445313A20424C4F434B533D04307804000000D2
S106E360000000B6
S116EFE0F3010010110070212001EDB0DBFE0E00CD0500FD
S123FC0010CEC0004F1F8B4FBDFD8CBDFD81863EBDFD8DBDFD9EBDFD8D8144271E814C27D1
S123FC2017814D273F815027528147272C863FBDFD8DBDFD817EFC0B7EFC8DBDFD7CBDFD4D
S123FC401E3410BDFD7CBDFD1E3510BDFD81BDFCC7BCFDB02BF87EFC0BBDFD1EBDFD7CBE53
S123FC60FDB06E84BDFD1EBDFD7CBDFD7ABDFD2C301FA784A18426477EFC0B10FFFDACBEB2
S123FC80FDACC609BDFD7A5A26FA7EFC0BBDFD9E815326F9BDFD9E81392729813126EE7FC3
S123FCA0FDAEBDFD2C8002B7FDAF8D72BDFD2C7AFDAF2706A784300120F27CFDAE27CE8682
S123FCC03FBDFD8D7EFC0BBDFD63BDFD7C3410C610BDFD7A5A26FA3510BDFD7C863ABDFD05
S123FCE08DC610A60081202B0A817F2A06BDFD8D7EFCF8862EBDFD8D30015A26E6BDFD816B
S123FD0039BDFD9E3402BDFD8D350281302BB581392F0A81412BAD81462EA98007398D0C85
S123FD20B7FDB08D07B7FDB1BEFDB0398DD3484848481F894D8DCA840F3404ABE01F894DA7
S123FD40FBFDAEF7FDAE3944444444840F8B30813923028B077EFD8DA6008DEBA6008DEB0B
S123FD603001393410350234028DDC35028DDC350234028DD235028DD2398DDC86207EFD36
S123FD808D860DBDFD8D860ABDFD8D39393402B6FE6D8420810027F73502B7FE6839B6FED4
S115FDA06D8401810027F7B6FE68393B0000000000002C
S111FFF2FDABFC00FC00FDABFC00FC00FC00C1
