S123C4002005822E893A818639B7D3FDCCCD03FDCC16CCBFFFFDCC2BAD9FD3F58EC4F1BDAC
S123C420CE79BDCD24FCCC4E34068EC522BFCC4EBDCE79BDCD1B3506FDCC4E108ECC0E8D65
S123C4405D25E28D5925DE8D5525DA108ED3708D4D25D28D4925CE8D4525CA7FD373BDCD1F
S123C46024BDDE188EC840BDDE0F8601A784BDD4062709A6018104263B7ECD03108EC0806F
S123C48010BFCC14C680BDD40626295A2726A7A0810D26F28604A784BDD4067ECD06BDCD02
S123C4A0483410250DA6A45D1A012704A6611CFEA7A035868EC4DEBDCE797ECD0334148E52
S123C4C0C51986042006800AA7848601AB828A30A784813922F03594BDDE3E8602394361A9
S123C4E06E27742072756E20535441525455502E04464C455820666F72204E48594F4459A4
S123C5004E4520363830392056657273696F6E20322E393A322004343834384B2072616DBB
S123C52004044461746520616E642054494D4520284D4D2F44442F59592048482F4D4D2FAD
S10DC5405353293F20047EC4003940
S115C70039393939393939393939393939393939393921
S104C71B0019
S116C840FF0000007374617274757000747874007EC40726
S123CC0008183A185000000800001B0001000000000000000000000000000000000000002A
S11ECC20000000000000000000000000000000010000000000000000000000F4
S104CC496086
S123CC4ECCAC574841543F0443414E2754205452414E53464552044E4F5420464F554E4470
S123CC6E044449534B204552524F522023044452495645204E4F54205245414459044745D2
S123CC8E5400D21A4D4F4E00D35600271003E80064000A6572726F727300007379732B2B4D
S105CCAE2B0451
S104CCC03936
S104CCD8391E
S104CCE43912
S123CCF801000000000000007ECD577ECD677ECDAB7EDE437EDE437EDE4C7EDE4C7ECEF7FC
S123CD187ECF3D7ECE2A7ECE797ECFE97ECEB17ED00A7ECDE47ED0327ED1B07ED0E77ED373
S123CD38547ECF827ECFD07ED28A7ED13D7ECFCC7ED1867ED3347EDE5D7ECDFF7ECDFF1061
S123CD58CEC07F7FCC11BDD4007FCC28BDD3FD10CEC07FBDDE188ECD03BFCC168EC700AFEA
S123CD789FD3E9BED3E7AF9FD3EB8ECCF8BFCC317FCC347FCC4C8D54B6CC11B1CC02260576
S123CD987CCC15200E7DCC28102605A2BDD40326B28D7ABDD0D0810D27EB8EC8407CCC0D43
S123CDB8BDD03225168ECC8C8D3E2709BECC1227078D3526036E9801BDD2398ECC508615B3
S123CDD8B7CC20BDCE797FCC117ECD67BECD13BFCD10BECD0DBFCD0A7FCC237FCC227FCCF4
S123CDF8217FCC267FCC2439108EC844A6A0815F23028020A18026086D8426F06DA4270CAE
S123CE186D8026FC30026D8426DE1CFB39BECC4E8D4F8EC080BFCC14BDCEF7B1CC0127ED3B
S123CE38B1CC002718810D270D810A272B811F23E78CC0FF27E2A780810D26DC398CC080C1
S123CE5827CB301FB6CC07810826088620BDCF62B6CC07BDCF6220C0860DBDCF3D86202028
S123CE78D08D36A68481042773BDCF3D300120F3BDCD4E2769AD9FD3E5847FB1CC0A265E33
S123CE987FCC1AAD9FD3E5847FB1CC0A2750810D26F17FCC116E9FCC167DCC2126278DD008
S123CEB8B6CC032720B1CC1A22187FCC1A7DCC0927028DCC3404F6CC0827058D085A26FB42
S123CED835047CCC1A860D8D5C860A8D583404F6CC0527064F8D4E5A26FA35041CFE397DD1
S123CEF8CC23261A7DCC2627108D1A7DCC2F27117DCC24270C8D532008BDCD092003BDCD02
S123CF180C7FCC1A39BFCC47BECC262006BFCC47BECC24BDD4062604BECC47397FCC24BD2C
S123CF38D28A7ECD037DCC212620811F22057FCC2920177CCC293402B6CC04270BB1CC2904
S123CF582406BDCEB17CCC29350234027DCC2226137DCC2427048DB5200D7DCC262608BD6C
S123CF78CD0F2003BDCD123502397FCC4AF7CC1D8604B7CC4DEC848ECC998D0B30027ACC48
S123CF984D26F71F98203D7FCC4B10A3842507A3847CCC4B20F43402B6CC4B26107DCC4A64
S123CFB8260B7DCC1D270B86208D2320057CCC4A8D1235828D023001A6848D04A684200460
S123CFD844444444840F8B30813923028B077ECF3D81302514813923168141250C815A230E
S123CFF80E81612504817A23061A01B7CC11391CFE393410BECC14B6CC18B7CC19A680B7A8
S123D018CC18810D2710B1CC02270BBFCC1481202604A18427E78DB935908615A70186FF2A
S123D038A7036F046F0CBDD0D08608B7CC4B8D34252E260F8D2E25282609BCCC3F276C8D1C
S123D058232368BECC3F6D0427616D032A0F7DCC0D2705B6CC0B2003B6CC0CA7037FCC0DD9
S123D078BECC3F398D8C254381392215BECC3F6D032A388403A703BDD00A242F812E1CFEA1
S123D09839F6CC4B2B253404C005F7CC4B3504B1CC4925028020A70430015ABDD00A240814
S123D0B8812D2704815F26065D26E41A01395D27CB6F0430015A20F6BFCC3FBECC14A684BF
S123D0D881202604300120F6BFCC14BECC3F393430E60C261E318C1D810F2217C6033D310D
S123D0F8ABC603A6A0B1CC4925028020A70C30015A26F035B062696E747874636D64626104
S123D1187373797362616B7363726461746261636469727072746F757472656C7266696477
S123D1386576617263BDD229BDD00A25228D2625183404C60478CC1C79CC1B5A26F73504CA
S123D158BBCC1CB7CC1C5C20DFBDD00A24FB39BECC1B1CFE39815F2302802080472A0C8B02
S123D178062A048B072A048B0A2AE71A0139BDD229BDD00A25D9813922CF840F34043402AC
S123D198FCCC1B58495849F3CC1B5849EBE08900FDCC1B35045C20D97FCC1D8D3D81022731
S123D1B815811626F68D33B7CC1E8D2EB7CC1F8601B7CC1D20E58D221F898D1E1E89F3CC39
S123D1D81BFDCC3D8D141F894D27D08D0DBECC3DA780BFCC3D5A26F320C18EC840BDD406B4
S10BD1F82711A6018108260E8F
S123D20032628604A784BDD406260A1CFE39B7CC20810427728D737ECDDE86008D35250F41
S123D2208D077CCC4C8D8920F14F5FFDCC1B39F6CC4C1027FB9D7ECD0386028D228DEABD3A
S123D240D1B0F6CC1D27046E9FCC1E8ECC5686817ECDD834028EC840BDD0323502251A8EDF
S123D260C840BDD0E78EC8408601A784BDD1F2102500BB86FFA7883B39B6CC11810D2707FF
S123D280B1CC021026FB4C1A01393430A601B7CC202763BDCDE410BECC2D2608811027588F
S123D2A0108ECCA18EC8406D0227098604A784BDD406262E8EC838C60B8D6E8EC840B6CC18
S123D2C00BA7038601A784BDD4062616B6CC204A47474C6F8820A788218615A784BDD40686
S123D2E0271E8ECC6FBDCE79BECC3FB6CC20A7016F845FBDCF8235B08ECC7CBDCE7920F6D0
S123D300BDCEB18EC840B6CC204A8403C63F3DCB04E78822BDD40626C9BDCF3D810D26F42B
S123D3208604A784BDD40620CD34307ED0FB8ECC657ECDDB3506FDCC4310FFCC457FCC204C
S123D3407CCC287ECDB27FCC2810FECC45F6CC206E9FCC433A397DCCFC26046E9FD3F38E89
S10FD360C840861BA701BDD28A7ECD67A1
S123D3E1DE8EDE9ADE6DDE7AFDABFDABDE3EDE3EDE3EDE33DE3FDE5DDE4CDE437EC4007E89
S10BD401D43A7ED45D7ED47F91
S123D435FF00000000BDDE158ED409C60A8D118E0005BFD413BFD4157FD41A8ED41BC61AA0
S123D4556F805A26FB7EC70CBDC709BED40927EB3088E4BFD40B3420BDDADA352024ECBE9C
S123D475D40B6F02BDC70CC6FF397DCCFC2703BDC7093424BFD40B6F01E6842622E6022792
S123D4951AC1022711BDD5BCBED40B25267DCCFC26235F352439BDD6D720EDC6122014C165
S123D4B5162304C601200C5A588ED4D2AD95BED40B2402E701BDC70C6D01352439D98FD97F
S123D4D5E2DB10DADAD5EAD825D840D87FD649D6A7D972DBEDDB43D6A1DA9ED818D577D5BA
S123D4F598DB1EDDD5DD13DCFD8D202605C6021A0139ED84AE846F846F01398D0E2705C647
S123D5150D1A0139EC94ED841CFE39FCD40BC3001C8ED40910AE8426031CFB3910A3842610
S123D5350139AE8420EEBED40B4F5F8D02C62FA7881130015A26F839BED40BC60BA604A7A8
S123D555882430015A26F639BED40BC60BA6048A203402A688248A20A1E0260530015A26D5
S123D575EC39BED40BE602542479E688237ED608BED40BE688226C88223AA788405C261F7D
S123D5951A0139BED40BE602C403C1032655CA80E702E60FC580260AE688233AA788401CA0
S123D5B5FE39C60B1A0139A6883B2B3C27076A883B8620201D8D31251B8118221527F6817C
S123D5D509260C8D23250DBED40BA7883B20D84D27E31CFE39BDDAC8250985012705A78402
S123D5F57ED9A9C6121A0139BED40BE68822270A6C88223AA688401CFE398D0324EA39BEE2
S123D615D40BEC88406C882126036C882010830000271CED881E34028604A7882235028DCE
S123D635132410C5802704C6102006C6092002C6081A01398D25BED40BBDDE0C25128D1140
S123D655BDDE0026031CFE3934048D17350424EE39BED40BEC881E308840394FB7D411B738
S123D675D41239C5102611C5802624F6D4115CC1052705F7D41120147FD411F6D4125CC141
S123D69507270CF7D412BED40BBDDE091CFE391A01398DC7BED40BBDDE0C2520BED40B8D6B
S123D6B5B0BDDE03260AB6D4352737BDDE062732C540260B34048DAB350424E039C6201AA0
S123D6D50139BED40BE6883B2B3D8120260F5CE7883BC17F260C200D8D0B24E6395D272748
S123D6F520F61CFE393402C10126048620201086098D143502250F3402BED40BA6883B6F6A
S123D715883B8D03350239BED40BE602C1021026FED1E68822C104260834028D213502251D
S123D7350FBDD585240AC604BED40BE788221CFE39BED40B4F5FED8820ED88422027E688E5
S123D755122622E6881727446F88178D3F252A8DE025268DDC2522BED40BC602E78817ECFE
S123D77588117EDC998D0EBED40BED8840BDD6A7241A7EDBD88D03EC8439BED40BE6038629
S123D795063D8ED41D3ABFD41B6D84398DE72605C6071A0139BED40BED88136D8812260387
S123D7B5ED88116C881626036C88156D8817270BBDDC5A25DDBED40BEC8813BDD62825D285
S123D7D5BED40BEC884034068DB03506ED84260A6F026F036F046F05200810AE04313F1058
S123D7F5AF044FBED40B6C882126036C88205FA7884030015A26F8BED40BEC8820ED8842C0
S123D8151CFE395F3404C603200EBED415BFD413F6D4133404F6D414BED40BE78841350448
S123D835E788407FD4185FE7882239BED40BE68822261EBDD6142531BED40B7DD4182606EC
S123D855CC0005FDD4188610A78822EC881EED882FA68822A78831C6183414BDD5FD35142A
S123D875A70430015A26F21CFE39BED40BA68831A78822C6183414A604BDD71C35143001A7
S123D8955A26F27ED6A7BED40BA603A78823B6D4177DD41A2631A703BED415BFD4138C0084
S123D8B505270C8D222337BED418BFD41320EFBED40BA68823A7032A0EBDDDD525368D0781
S123D8D5231CBDDDC520F2BED40B7FD41ABDD54DBDD825BDD8402407C10827181A0139BEC2
S10ED8F5D40BA604270C2A028D0FBDE3
S123D900D55D26E41CFE398D051CFB1CFE39A68833260CEC882FED8832A68831A7883439A0
S123D920BDD78F26178D182515C60610BED40BBED41BA6A85D3121A7805A26F61CFE39BDD4
S123D940D818BDD6142508BED40BC610E7882239BDD78F8DEA25F8C60610BED40BBED41BE5
S123D960A680A7A85D31215A26F6BDD6A724E07EDBD8BED40B8602A702EC882FED881EBDD9
S123D980D6492508BDD87F24057EDBD8C60A39BDD4FE253DBDD89B2538263BBED40B7DD4F3
S123D9A01A2706A60F85202629BDDCD8252AEC8811ED8840BDDA8DE6881727133404BDD6CB
S123D9C0143504250C5A26F4BED40B5FE788221CFE39C6112002C6043404BDD51035041A81
S123D9E00139BED40B6D032A08BDDDD52403C61039BDD4FE25E2BDD53BBDD92025DABDD858
S123DA009B25D52604C60320CFBDDCD825CABED40BC60A6F0F30015A26F9BED40BEC883253
S123DA202734ED882FA68834A78831FCCC0EED8819B6CC10A7881BA6038ED436A686BED4E2
S123DA400BA78818BDDDC5BDD972258C8D3F8604A788221CFE39BED40B6F88176C8812ECC1
S123DA60882FBDD628250DBDD77A2508BDD6A72406BDDBD87ED9D8BED40BEC881EED8832EA
S123DA808610A78834BDD95025EA7EDA09BED40BA684A7026F846F883B4FA78822398D2810
S123DAA0250E6F84441025FB6BC604E788221CFE39BED40BA6028183260B8603A702BDD670
S123DAC0A7102501131CFE398DE7250DBED40BA602810323F0C6121A01398DEC25318102FF
S123DAE02708BED40B6F027ED510A688122605BDDBBE20198DC82517BED40B6D8817270522
S123DB00BDDCAF250ABDD9722505BDD95024D339BDD98F2528BDD614252386032018BDD98A
S123DB208F251ABED40BA60F85802612EC8813BDD62825098602BED40BA7021CFE39C60B22
S123DB401A01398D35BDD89B252A2724BED40BC60BA68824A70430015A26F68D4D2515BEFD
S123DB60D40BA60F858026D6856026098D0C2055C6031A0139C60C1A0139BED40B860BB7C2
S123DB80D411A604E68835A78835E70430017AD41126EFBED40BA60C260CC603A6883DA7FF
S123DBA00C30015A26F6BED40B398DCEBDD89B25072606BED40B1CFE39C6041A0139BED455
S123DBC00B86FFA704BDD972BED40B8600A70239ED8840BDD6A72414C5402608C580270A29
S123DBE0C6102006C60B2002C60A1A0139BDD920255E8DB8255ABED40BA60F8580265285BD
S123DC00602652BDD78FBED41BEC02260FBED40BEC88112733BED41BED842014BED40BBD0D
S123DC20D628252CBED40BEC8811271C8DA22520BED40BEC8813BED41BED02BED40BEC88E7
S123DC4015BED41BE304ED04BDDBBE2503BDD95039C60B2002C60C1A0139EC881E5CE18819
S123DC603C2303C6014C10A38813260EA6883781FF27074CA788371CFE398D332530BED4EA
S123DC800BA6883A8B032616EC881E10A388112705C6171A0139EC8840ED88388604A788EE
S123DCA03AEC8813ED88358601A788371CFE39EC8838BDD62825F7BED40B1F12E6883A12AA
S123DCC03AC603A6A8353121A7884030015A26F3BDD6A724D97EDBD8BDD818BDD61425462E
S123DCE0BED40B4F5FED8820A68867A7883C5F6F884030015A26F8BED40B1CFE39BED40B74
S123DD00A68817271DEC88208300012A037EDDB2ED8820BDDAC8250E4624076F84A6881754
S123DD202605C6121A01397FD411EC881110AE8820276ABDDDB725EE4F5F6D022774EB029F
S123DD408900BFD40FBED40B10A38820242CBED40F30033402B6D4114CB7D41181542708BB
S123DD6081A83502274C20D23404BED40BEC88408D45253E3504350220C0A38820BED40FE0
S123DD80A6023404A0E04A1F89A684EB01BED40B2505E1883C2306E0883C4C20F5BDD628C2
S123DDA02514BED40BEC884210A388202714C6192002C6181A0139BDD6282508BED40BC6BF
S123DDC0443A1CFE39BED40BC60BA68824A70430015A26F639BED40BA6034C8104240FA732
S116DDE0032605BDDE0F2003BDDE1225E839C6101A013914
S123DE007EDEBB7EDED37EDEEB7EDF1B7EDF317EDF717EDF727EDF137EDF1A7EDEFF00008C
S123DE2000000002020101010100010000000000000000860A8D15860D8D117EFC0B393480
S123DE400235827DDEB92720AD9FDEB93402B6FE6D8420810027F73502B7FE68393402B6B4
S123DE60FE6D840181003582BDDE6D20DFB6FE6D8401810027F7B6FE6839338C35EE442788
S123DE800CA6D4A54627F610AEC46ED8023B34708D142704EF04AF2435F034708D0826042D
S123DEA0AE04AF4435F0338C0931C4AC442706EE4426F61CFB3900000100003402B6DE1F32
S123DEC08102270AC61F57358235027EE41735027EE0833402B6DE1F8102270AC61F5735C1
S123DEE08235027EE52335027EE104B6DE1F8101270881022706C61F573920FAC60039B6ED
S123DF00DE1F8101270881022706C61F573920FAC60039BDDF78BDE8C839398D14B6DE1FCA
S123DF208101270881022706C61F573920FAC60039A60381042504C61F57398EDE233086DD
S123DF40E684C1012706C102270220EBF7DE1FB7DE1E8EDE273086E684F7DE208EDE2B483F
S123DF603086E684F7DE213001E684F7DE22C6003939390000000000BDCEB1BDCEB18EE39B
S123DF8030BDCE7BBDCEB1BDE075261D8EE338BDCE7BCCFE60FDDF768EDF76BDCFCCBDE1B2
S123DFA078BDDFCF25037EDFB28EE33FBDCE7B7EDFCBBDCEB18EE34CBDCE7B8600BDE01A29
S123DFC08EE35DBDCE7B8601BDE01ABDCEB1398600B7FE60BDE1A6253E860FBDE2BF1F184A
S123DFE0844081002731860ABDE2BF1F1881012626860BBDE2BF1F188101261B860CBDE273
S123E000BF1F1881002610860DBDE2BF1F18810026051CFE7EE0191A0139840148484848F1
S123E0208AE01F8986001F01860EBDE2E4BDE1A62531860F8E00ECBDE2E4BDE1CF2524BD6E
S123E040E1FF8EE36EBDCE7BB6EC4EBDE322B6EC4DBDE322B6EC4CBDE322B6EC4BBDE32235
S123E0607EE06F8EE33FBDCE7BBDCEB11A0139BDCEB11CFE39BDE3148600B7FE60B6FE6097
S123E0808100395AB7E377F0E37724014A3410F7E377BDE0B635102619B6E3778401C600D7
S123E0A01F02C600A6A9EBD3A78031215CC10026F339C61F5739BDE27EB6E376B1E37326B2
S123E0C013B6E375B1E372260BB6E374B1E3712603C60039BDE1A62528BDE23B860F8E001C
S123E0E020BDE2E4BDE1CF2518BDE1FFB6E376B7E373B6E374B7E371B6E375B7E372C6001E
S123E10039C60F3934205AB7E377F0E37724014A3410F7E377BDE0B61026004A3510B6E3F6
S123E120778401C6001F02C600A680A7A9EBD331215CC10026F3BDE1A6252D860F8E00308D
S123E140BDE2E4BDE1CF2520BDE21DBDE1A6251886FFB7E373B7E371B7E3723436BDE0D4C5
S123E1603536C60035A03510C6FFF7E373F7E371F7E372C61F5735A08600B7E376B7E374F2
S123E180B7E37586FFB7E373B7E371B7E3728680B7FE628E0100301F8C000026F98600B7E0
S123E1A0FE62BDE9473934128600B7DF74B7DF75860FBDE2BF1F188480270F7CDF7426F0AB
S123E1C07CDF7526EB1A017EE1CC1CFE35923934328600B7DF74B7DF75860FBDE2BF1F18CF
S123E1E084888108271584018101270A7CDF7426E87CDF7526E31A017EE1FD1CFE35B210D4
S123E2008E00008608BDE2C21F10E7A9EBD33121A7A9EBD33121108C020026E739108E00CC
S123E22000E6A9EBD33121A6A9EBD331211F018608BDE2E4108C020026E739B6DE2084018E
S123E240484848488AE01F8986001F01860EBDE2E48600F6E3751F01860DBDE2E48600F645
S123E260E3741F01860CBDE2E48600F6E3761F01860BBDE2E48E0001860ABDE2E439544492
S123E2802402CA80F7E376B7E374FCDE2154442402CA80F7E3752408B6E3748A80B7E37409
S123E2A0B6DE1EB7EBA4B6E375B7EBA5B6E374B7EBA6B6E376B7EBA7BDE9D9BDEA2039BD24
S123E2C0E306B7FE628A40B7FE623402F6FE60B6FE611F013502B7FE628840B7FE628600E7
S123E2E0B7FE6239BDE31434021F10F7FE60B7FE613502B7FE628A20B7FE628820B7FE6278
S123E3008600B7FE623934028600B7FE628692B7FE63358234028600B7FE628680B7FE6378
S123E320358234023402BDCFD83502BDCFDC35825050494445203A0420494F3D307804206B
S123E3404E4F542050524553454E5404205050494445303A20424C4F434B533D04205050A8
S123E360494445313A20424C4F434B533D04307804000000000000008600B7E88FB7E890AE
S123E380B7E89186FFB7E892B7E893B7E8948EE89CBDCE7BBDCEB18EE8A9BDCE7BCCFE30BB
S123E3A0FDE8C68EE8C6BDCFCCBDE80D8100270C8EE8B0BDCE7BBDCEB186FF398EE8BDBD9E
S123E3C0CE7BBDCEB186A4B7E899B7FE36BDE79F8603BDE74A867FBDE74A8605BDE74ABD84
S123E3E0E79FBDE79FBDE79FBDE79FBDE79FBDE79F8601B7DE20BDE71F8627B7E890BDE6C6
S123E400E4BDE71F8600B7DE20BDE71F8627B7E890BDE6E47EE71F3436FDE8C68EE8C6BD5E
S123E420CFCCBDCEB135363402B6E88E810027063502C61F5739B7E89AB7E89B35023410EC
S123E440F7E8C6BDE463351026E8B6E8C68401C6001F02C600A6A9EBD3A78031215CC10083
S123E46026F339BDE5A634368641BDDE4C3536B6E8998A02B7E899B7FE3634368642BDDEC8
S123E4804C3536B6E88FB1E892261CB6E890B1E8932614B6E891B1E894260C34368644BD14
S123E4A0DE4C353686003934368645BDDE4C3536B6E88FB7E892B6E890B7E893B6E891B7D9
S123E4C0E89434368646BDDE4C35368646B7E897BDE5D634368621BDDE4C35368100273778
S123E4E07CE89AB6E89A810626D8BDE71FBDE6E48600B7E89A7CE89BB6E89B810226C3862A
S123E500FFB7E892B7E893B7E89434368647BDDE4C3536C61F573934368648BDDE4C3536DA
S123E5208600393402B6E88E810027063502C61F573935023410F7E8C6BDE463351026EEDF
S123E540B6E8C68401C6001F02C600A680A7A9EBD331215CC10026F3F7E89AF7E89B86FFED
S123E560B7E892B7E893B7E8948645B7E897BDE5D68100272E7CE89AB6E89A810626EABD28
S123E580E71FBDE6E48600B7E89A7CE89BB6E89B810226D586FFB7E892B7E893B7E894C694
S123E5A01F573986003934028401B7E88F350244B7E89054F7E891B6DE1EB7EBA4B6E88F6D
S123E5C0B7EBA5B6E890B7EBA6B6E891B7EBA7BDE9D9BDEA203934368649BDDE4C353634C4
S123E5E036864ABDDE4C3536B6E8998A02B7E899B7FE36BDE6E43436864BBDDE4C3536B60F
S123E600E897814626037EE6667EE6C5B6E89984FDB7E899B7FE3686FF1CEF391CFEB6DE42
S123E620208403B7E896B6E88F84014848BAE896B7E896B6E897BDE74AB6E896BDE74AB650
S123E640E890BDE74AB6E88FBDE74AB6E891BDE74A8602BDE74A8609BDE74A861BBDE74A96
S123E66086FFBDE77B393436863CBDDE4C35368EEBD3108E0200BDE61CB6FE302AFB8520E2
S123E6802709B6FE31A780313F26EEB6E8998A01B7E899B7FE36BDE877B6E89984FEB7E85D
S123E6A099B7FE36BDE877B6E89984FDB7E899B7FE36BDE7F1B7E895BDE7F1810026F9B627
S123E6C0E89584C0398EEBD3108E0200BDE61CE680B6FE302AFB85202707B7FE31313F26D3
S123E6E0EE7EE68BB6E8998A02B7E899B7FE36BDE79F81FF26037EE749B6E8998A02B7E857
S123E70099B7FE36B6E89081002714860FBDE74AB6DE20BDE74AB6E890BDE74A7EE735B6F6
S123E720E8998A02B7E899B7FE368607BDE74AB6DE20BDE74A34108E0100BDE8803510BD8E
S123E740E79FB6FE30840F26F6393402108E0100B6FE301F8984802609313F26F335028689
S123E760FF39C440260F3502B7FE31BDE877BDE877BDE87739B6FE317EE7503402B6FE30C6
S123E7801F89848027F7C44026063502B7FE31393436867EBDDE4C3536B6FE317EE77D108E
S123E7A08E0200B6FE308480260ABDE877313F26F27EE7BCB6FE308440271939108E020027
S123E7C0B6FE31B6FE3084802607BDE877313F26EF86FF398608BDE74ABDE7F1B7E8988410
S123E7E0C081802709BDE7F1B6E89884C03986FF39108E0200B6FE301F8984802607313F51
S123E80026F3860039C4402703B6FE313986A4B7E899B7FE36BDE854B6FE303436BDE3227A
S123E82035368180270A81D0270686FFB7E88E398E1000BDE880B6FE303436BDE322353690
S123E8408180270A81D0270686FFB7E88E398600B7E88E39B6FE338E0200BDE8808600B754
S123E860FE368E0200BDE88086A4B7E899B7FE368E0200BDE880393402350234023502395D
S123E880301F8C00008C00008C000026F339000000000000000000000000000046443A204B
S123E8A04D4F44453D4D42430420494F3D307804204E4F542050524553454E540420505263
S123E8C04553454E54040000BDE9178EEBB0BDCE7BBDCEB18EEBB6BDCE7BCCFE60FDEB9AA8
S123E8E08EEB9ABDCFCC8EEBBDBDCE7BB6EB9981FF27088EEBC6BDCE7B20188E0000A6894A
S123E900EBA8A789EB9C30018C000826F1BDEA20BDEAF2BDCEB139BDE960262ABDEB718603
S123E92006B7FE628A80B7FE62847FB7FE62BDE94786A5C600BDEABBC600BDEACE81A526B4
S123E9400586FFB7EB9939BDEB848620BDEA3786DFBDEA378E000034103510301F26F83905
S123E960BDEB598600B7FE60B6FE60810039B6EB9981FF2605BDEA73840F39B6EB9981FFA4
S123E9802629BDE96E27F48640BDEA37BDEA7888C03402843FB7EB978E0000A689E9BDB1A4
S123E9A0EB97270C30018C001C26F0350286FF39350294C0B7EB971F18BAEB97390D040C2D
S123E9C014030B13020A1201091100081005151D1C1B1A1918232221208E0000A689EBA422
S123E9E044444444C6001E891F02A6A9EB8734021F10581F023502A7A9EB9CA689EBA48486
S123EA000FC6001E891F02A6A9EB8734021F10581F023502A7A9EB9D30018C000426BD39CA
S123EA2034368E0000A689EB9C1F19BDEABB30018C000826F035B6340286017EEA42340227
S123EA408600BDEB598A06B7FE628A18B7FE62B7EB973502B7FE60B6EB9784FDB7FE621264
S123EA608A02B7FE6284E7B7FE6284E6B7FE62BDEB843986017EEA7A8600BDEB718A06B738
S123EA80FE628A18B7FE62847BB7FE62B7EB97B6FE603402B6EB978A04B7FE6284E7B7FEC3
S123EAA06284E6B7FE62BDEB8435828690BDEA37C61086FFBDEA3E5A26F83934021CFEC98E
S123EAC0901F98BDEA37350288FFBDEA3E391CFEC9701F98BDEA37BDEA7888FF393416C65A
S123EAE0008EEB9CA684BDEABB5C3001C10826F435963416C60FBDEACE8A208620C60FBDC0
S123EB00EABB8E8FFF301F26FCC60FBDEACE84DF86DFC60FBDEABB35963406C60DBDEACE29
S123EB208A20C60DBDEABB35863406C60DBDEACE8A20C60EBDEABB35863406C60DBDEACE98
S123EB4084DFC60DBDEABB35863406C60DBDEACE84DFC60EBDEABB35863402B6EB98818216
S123EB60270D8682B7FE63B7EB988606B7FE6235823402B6EB98819227088692B7FE63B711
S123EB80EB9835827EEB713F065B4F666D7D077F67777C395E7971000000000000000000BD
S123EBA00000000000000000546E5C5E6E54794044534B593A0420494F3D307804204D4F84
S116EBC044453D4E4704204E4F542050524553454E540489
S116EFE0F3010010110070212001EDB0DBF00E00CD05000B
S123FC0010CEC0004F1F8B4FBDFD8CBDFD81863EBDFD8DBDFD9EBDFD8D8144271E814C27D1
S123FC2017814D273F815027528147272C863FBDFD8DBDFD817EFC0B7EFC8DBDFD7CBDFD4D
S123FC401E3410BDFD7CBDFD1E3510BDFD81BDFCC7BCFDB02BF87EFC0BBDFD1EBDFD7CBE53
S123FC60FDB06E84BDFD1EBDFD7CBDFD7ABDFD2C301FA784A18426477EFC0B10FFFDACBEB2
S123FC80FDACC609BDFD7A5A26FA7EFC0BBDFD9E815326F9BDFD9E81392729813126EE7FC3
S123FCA0FDAEBDFD2C8002B7FDAF8D72BDFD2C7AFDAF2706A784300120F27CFDAE27CE8682
S123FCC03FBDFD8D7EFC0BBDFD63BDFD7C3410C610BDFD7A5A26FA3510BDFD7C863ABDFD05
S123FCE08DC610A60081202B0A817F2A06BDFD8D7EFCF8862EBDFD8D30015A26E6BDFD816B
S123FD0039BDFD9E3402BDFD8D350281302BB581392F0A81412BAD81462EA98007398D0C85
S123FD20B7FDB08D07B7FDB1BEFDB0398DD3484848481F894D8DCA840F3404ABE01F894DA7
S123FD40FBFDAEF7FDAE3944444444840F8B30813923028B077EFD8DA6008DEBA6008DEB0B
S123FD603001393410350234028DDC35028DDC350234028DD235028DD2398DDC86207EFD36
S123FD808D860DBDFD8D860ABDFD8D39393402B6FE6D8420810027F73502B7FE6839B6FED4
S115FDA06D8401810027F7B6FE68393B0000000000002C
S111FFF2FDABCD00CD00FDABCD00CD00CD00AC
