S123C4002005822E893A818639B7D3FDCCCD03FDCC16CCBFFFFDCC2BAD9FD3F58EC4F1BDAC
S123C420CE79BDCD24FCCC4E34068EC522BFCC4EBDCE79BDCD1B3506FDCC4E108ECC0E8D65
S123C4405D25E28D5925DE8D5525DA108ED3708D4D25D28D4925CE8D4525CA7FD373BDCD1F
S123C46024BDDE188EC840BDDE0F8601A784BDD4062709A6018104263B7ECD03108EC0806F
S123C48010BFCC14C680BDD40626295A2726A7A0810D26F28604A784BDD4067ECD06BDCD02
S123C4A0483410250DA6A45D1A012704A6611CFEA7A035868EC4DEBDCE797ECD0334148E52
S123C4C0C51986042006800AA7848601AB828A30A784813922F03594BDDE3E8602394361A9
S123C4E06E27742072756E20535441525455502E04464C455820666F72204E48594F4459A4
S123C5004E4520363830392056657273696F6E20322E393A322004343834384B2072616DBB
S123C52004044461746520616E642054494D4520284D4D2F44442F59592048482F4D4D2FAD
S10DC5405353293F20047EC4003940
S115C70039393939393939393939393939393939393921
S104C71B0019
S116C840FF0000007274617274757000747874007EC40727
S123CC0008183A185000000800001B0001000000000000000000000000000000000000002A
S11ECC20000000000000000000000000000000010000000000000000000000F4
S104CC496086
S123CC4ECCAC574841543F0443414E2754205452414E53464552044E4F5420464F554E4470
S123CC6E044449534B204552524F522023044452495645204E4F54205245414459044745D2
S123CC8E5400D21A4D4F4E00D35600271003E80064000A6572726F727300007379732B2B4D
S105CCAE2B0451
S104CCC03936
S104CCD8391E
S104CCE43912
S123CCF801000000000000007ECD577ECD677ECDAB7EDE437EDE437EDE4C7EDE4C7ECEF7FC
S123CD187ECF3D7ECE2A7ECE797ECFE97ECEB17ED00A7ECDE47ED0327ED1B07ED0E77ED373
S123CD38547ECF827ECFD07ED28A7ED13D7ECFCC7ED1867ED3347EDE5D7ECDFF7ECDFF1061
S123CD58CEC07F7FCC11BDD4007FCC28BDD3FD10CEC07FBDDE188ECD03BFCC168EC700AFEA
S123CD789FD3E9BED3E7AF9FD3EB8ECCF8BFCC317FCC347FCC4C8D54B6CC11B1CC02260576
S123CD987CCC15200E7DCC28102605A2BDD40326B28D7ABDD0D0810D27EB8EC8407CCC0D43
S123CDB8BDD03225168ECC8C8D3E2709BECC1227078D3526036E9801BDD2398ECC508615B3
S123CDD8B7CC20BDCE797FCC117ECD67BECD13BFCD10BECD0DBFCD0A7FCC237FCC227FCCF4
S123CDF8217FCC267FCC2439108EC844A6A0815F23028020A18026086D8426F06DA4270CAE
S123CE186D8026FC30026D8426DE1CFB39BECC4E8D4F8EC080BFCC14BDCEF7B1CC0127ED3B
S123CE38B1CC002718810D270D810A272B811F23E78CC0FF27E2A780810D26DC398CC080C1
S123CE5827CB301FB6CC07810826088620BDCF62B6CC07BDCF6220C0860DBDCF3D86202028
S123CE78D08D36A68481042773BDCF3D300120F3BDCD4E2769AD9FD3E5847FB1CC0A265E33
S123CE987FCC1AAD9FD3E5847FB1CC0A2750810D26F17FCC116E9FCC167DCC2126278DD008
S123CEB8B6CC032720B1CC1A22187FCC1A7DCC0927028DCC3404F6CC0827058D085A26FB42
S123CED835047CCC1A860D8D5C860A8D583404F6CC0527064F8D4E5A26FA35041CFE397DD1
S123CEF8CC23261A7DCC2627108D1A7DCC2F27117DCC24270C8D532008BDCD092003BDCD02
S123CF180C7FCC1A39BFCC47BECC262006BFCC47BECC24BDD4062604BECC47397FCC24BD2C
S123CF38D28A7ECD037DCC212620811F22057FCC2920177CCC293402B6CC04270BB1CC2904
S123CF582406BDCEB17CCC29350234027DCC2226137DCC2427048DB5200D7DCC262608BD6C
S123CF78CD0F2003BDCD123502397FCC4AF7CC1D8604B7CC4DEC848ECC998D0B30027ACC48
S123CF984D26F71F98203D7FCC4B10A3842507A3847CCC4B20F43402B6CC4B26107DCC4A64
S123CFB8260B7DCC1D270B86208D2320057CCC4A8D1235828D023001A6848D04A684200460
S123CFD844444444840F8B30813923028B077ECF3D81302514813923168141250C815A230E
S123CFF80E81612504817A23061A01B7CC11391CFE393410BECC14B6CC18B7CC19A680B7A8
S123D018CC18810D2710B1CC02270BBFCC1481202604A18427E78DB935908615A70186FF2A
S123D038A7036F046F0CBDD0D08608B7CC4B8D34252E260F8D2E25282609BCCC3F276C8D1C
S123D058232368BECC3F6D0427616D032A0F7DCC0D2705B6CC0B2003B6CC0CA7037FCC0DD9
S123D078BECC3F398D8C254381392215BECC3F6D032A388403A703BDD00A242F812E1CFEA1
S123D09839F6CC4B2B253404C005F7CC4B3504B1CC4925028020A70430015ABDD00A240814
S123D0B8812D2704815F26065D26E41A01395D27CB6F0430015A20F6BFCC3FBECC14A684BF
S123D0D881202604300120F6BFCC14BECC3F393430E60C261E318C1D810F2217C6033D310D
S123D0F8ABC603A6A0B1CC4925028020A70C30015A26F035B062696E747874636D64626104
S123D1187373797362616B7363726461746261636469727072746F757472656C7266696477
S123D1386576617263BDD229BDD00A25228D2625183404C60478CC1C79CC1B5A26F73504CA
S123D158BBCC1CB7CC1C5C20DFBDD00A24FB39BECC1B1CFE39815F2302802080472A0C8B02
S123D178062A048B072A048B0A2AE71A0139BDD229BDD00A25D9813922CF840F34043402AC
S123D198FCCC1B58495849F3CC1B5849EBE08900FDCC1B35045C20D97FCC1D8D3D81022731
S123D1B815811626F68D33B7CC1E8D2EB7CC1F8601B7CC1D20E58D221F898D1E1E89F3CC39
S123D1D81BFDCC3D8D141F894D27D08D0DBECC3DA780BFCC3D5A26F320C18EC840BDD406B4
S10BD1F82711A6018108260E8F
S123D20032628604A784BDD406260A1CFE39B7CC20810427728D737ECDDE86008D35250F41
S123D2208D077CCC4C8D8920F14F5FFDCC1B39F6CC4C1027FB9D7ECD0386028D228DEABD3A
S123D240D1B0F6CC1D27046E9FCC1E8ECC5686817ECDD834028EC840BDD0323502251A8EDF
S123D260C840BDD0E78EC8408601A784BDD1F2102500BB86FFA7883B39B6CC11810D2707FF
S123D280B1CC021026FB4C1A01393430A601B7CC202763BDCDE410BECC2D2608811027588F
S123D2A0108ECCA18EC8406D0227098604A784BDD406262E8EC838C60B8D6E8EC840B6CC18
S123D2C00BA7038601A784BDD4062616B6CC204A47474C6F8820A788218615A784BDD40686
S123D2E0271E8ECC6FBDCE79BECC3FB6CC20A7016F845FBDCF8235B08ECC7CBDCE7920F6D0
S123D300BDCEB18EC840B6CC204A8403C63F3DCB04E78822BDD40626C9BDCF3D810D26F42B
S123D3208604A784BDD40620CD34307ED0FB8ECC657ECDDB3506FDCC4310FFCC457FCC204C
S123D3407CCC287ECDB27FCC2810FECC45F6CC206E9FCC433A397DCCFC26046E9FD3F38E89
S10FD360C840861BA701BDD28A7ECD67A1
S123D3E1DE8EDE9ADE6DDE7AFDABFDABDE3EDE3EDE3EDE33DE3FDE5DDE4CDE437EC4007E89
S10BD401D43A7ED45D7ED47F91
S123D435FF00000000BDDE158ED409C60A8D118E0005BFD413BFD4157FD41A8ED41BC61AA0
S123D4556F805A26FB7EC70CBDC709BED40927EB3088E4BFD40B3420BDDADA352024ECBE9C
S123D475D40B6F02BDC70CC6FF397DCCFC2703BDC7093424BFD40B6F01E6842622E6022792
S123D4951AC1022711BDD5BCBED40B25267DCCFC26235F352439BDD6D720EDC6122014C165
S123D4B5162304C601200C5A588ED4D2AD95BED40B2402E701BDC70C6D01352439D98FD97F
S123D4D5E2DB10DADAD5EAD825D840D87FD649D6A7D972DBEDDB43D6A1DA9ED818D577D5BA
S123D4F598DB1EDDD5DD13DCFD8D202605C6021A0139ED84AE846F846F01398D0E2705C647
S123D5150D1A0139EC94ED841CFE39FCD40BC3001C8ED40910AE8426031CFB3910A3842610
S123D5350139AE8420EEBED40B4F5F8D02C62FA7881130015A26F839BED40BC60BA604A7A8
S123D555882430015A26F639BED40BC60BA6048A203402A688248A20A1E0260530015A26D5
S123D575EC39BED40BE602542479E688237ED608BED40BE688226C88223AA788405C261F7D
S123D5951A0139BED40BE602C403C1032655CA80E702E60FC580260AE688233AA788401CA0
S123D5B5FE39C60B1A0139A6883B2B3C27076A883B8620201D8D31251B8118221527F6817C
S123D5D509260C8D23250DBED40BA7883B20D84D27E31CFE39BDDAC8250985012705A78402
S123D5F57ED9A9C6121A0139BED40BE68822270A6C88223AA688401CFE398D0324EA39BEE2
S123D615D40BEC88406C882126036C882010830000271CED881E34028604A7882235028DCE
S123D635132410C5802704C6102006C6092002C6081A01398D25BED40BBDDE0C25128D1140
S123D655BDDE0026031CFE3934048D17350424EE39BED40BEC881E308840394FB7D411B738
S123D675D41239C5102611C5802624F6D4115CC1052705F7D41120147FD411F6D4125CC141
S123D69507270CF7D412BED40BBDDE091CFE391A01398DC7BED40BBDDE0C2520BED40B8D6B
S123D6B5B0BDDE03260AB6D4352737BDDE062732C540260B34048DAB350424E039C6201AA0
S123D6D50139BED40BE6883B2B3D8120260F5CE7883BC17F260C200D8D0B24E6395D272748
S123D6F520F61CFE393402C10126048620201086098D143502250F3402BED40BA6883B6F6A
S123D715883B8D03350239BED40BE602C1021026FED1E68822C104260834028D213502251D
S123D7350FBDD585240AC604BED40BE788221CFE39BED40B4F5FED8820ED88422027E688E5
S123D755122622E6881727446F88178D3F252A8DE025268DDC2522BED40BC602E78817ECFE
S123D77588117EDC998D0EBED40BED8840BDD6A7241A7EDBD88D03EC8439BED40BE6038629
S123D795063D8ED41D3ABFD41B6D84398DE72605C6071A0139BED40BED88136D8812260387
S123D7B5ED88116C881626036C88156D8817270BBDDC5A25DDBED40BEC8813BDD62825D285
S123D7D5BED40BEC884034068DB03506ED84260A6F026F036F046F05200810AE04313F1058
S123D7F5AF044FBED40B6C882126036C88205FA7884030015A26F8BED40BEC8820ED8842C0
S123D8151CFE395F3404C603200EBED415BFD413F6D4133404F6D414BED40BE78841350448
S123D835E788407FD4185FE7882239BED40BE68822261EBDD6142531BED40B7DD4182606EC
S123D855CC0005FDD4188610A78822EC881EED882FA68822A78831C6183414BDD5FD35142A
S123D875A70430015A26F21CFE39BED40BA68831A78822C6183414A604BDD71C35143001A7
S123D8955A26F27ED6A7BED40BA603A78823B6D4177DD41A2631A703BED415BFD4138C0084
S123D8B505270C8D222337BED418BFD41320EFBED40BA68823A7032A0EBDDDD525368D0781
S123D8D5231CBDDDC520F2BED40B7FD41ABDD54DBDD825BDD8402407C10827181A0139BEC2
S10ED8F5D40BA604270C2A028D0FBDE3
S123D900D55D26E41CFE398D051CFB1CFE39A68833260CEC882FED8832A68831A7883439A0
S123D920BDD78F26178D182515C60610BED40BBED41BA6A85D3121A7805A26F61CFE39BDD4
S123D940D818BDD6142508BED40BC610E7882239BDD78F8DEA25F8C60610BED40BBED41BE5
S123D960A680A7A85D31215A26F6BDD6A724E07EDBD8BED40B8602A702EC882FED881EBDD9
S123D980D6492508BDD87F24057EDBD8C60A39BDD4FE253DBDD89B2538263BBED40B7DD4F3
S123D9A01A2706A60F85202629BDDCD8252AEC8811ED8840BDDA8DE6881727133404BDD6CB
S123D9C0143504250C5A26F4BED40B5FE788221CFE39C6112002C6043404BDD51035041A81
S123D9E00139BED40B6D032A08BDDDD52403C61039BDD4FE25E2BDD53BBDD92025DABDD858
S123DA009B25D52604C60320CFBDDCD825CABED40BC60A6F0F30015A26F9BED40BEC883253
S123DA202734ED882FA68834A78831FCCC0EED8819B6CC10A7881BA6038ED436A686BED4E2
S123DA400BA78818BDDDC5BDD972258C8D3F8604A788221CFE39BED40B6F88176C8812ECC1
S123DA60882FBDD628250DBDD77A2508BDD6A72406BDDBD87ED9D8BED40BEC881EED8832EA
S123DA808610A78834BDD95025EA7EDA09BED40BA684A7026F846F883B4FA78822398D2810
S123DAA0250E6F84441025FB6BC604E788221CFE39BED40BA6028183260B8603A702BDD670
S123DAC0A7102501131CFE398DE7250DBED40BA602810323F0C6121A01398DEC25318102FF
S123DAE02708BED40B6F027ED510A688122605BDDBBE20198DC82517BED40B6D8817270522
S123DB00BDDCAF250ABDD9722505BDD95024D339BDD98F2528BDD614252386032018BDD98A
S123DB208F251ABED40BA60F85802612EC8813BDD62825098602BED40BA7021CFE39C60B22
S123DB401A01398D35BDD89B252A2724BED40BC60BA68824A70430015A26F68D4D2515BEFD
S123DB60D40BA60F858026D6856026098D0C2055C6031A0139C60C1A0139BED40B860BB7C2
S123DB80D411A604E68835A78835E70430017AD41126EFBED40BA60C260CC603A6883DA7FF
S123DBA00C30015A26F6BED40B398DCEBDD89B25072606BED40B1CFE39C6041A0139BED455
S123DBC00B86FFA704BDD972BED40B8600A70239ED8840BDD6A72414C5402608C580270A29
S123DBE0C6102006C60B2002C60A1A0139BDD920255E8DB8255ABED40BA60F8580265285BD
S123DC00602652BDD78FBED41BEC02260FBED40BEC88112733BED41BED842014BED40BBD0D
S123DC20D628252CBED40BEC8811271C8DA22520BED40BEC8813BED41BED02BED40BEC88E7
S123DC4015BED41BE304ED04BDDBBE2503BDD95039C60B2002C60C1A0139EC881E5CE18819
S123DC603C2303C6014C10A38813260EA6883781FF27074CA788371CFE398D332530BED4EA
S123DC800BA6883A8B032616EC881E10A388112705C6171A0139EC8840ED88388604A788EE
S123DCA03AEC8813ED88358601A788371CFE39EC8838BDD62825F7BED40B1F12E6883A12AA
S123DCC03AC603A6A8353121A7884030015A26F3BDD6A724D97EDBD8BDD818BDD61425462E
S123DCE0BED40B4F5FED8820A68867A7883C5F6F884030015A26F8BED40B1CFE39BED40B74
S123DD00A68817271DEC88208300012A037EDDB2ED8820BDDAC8250E4624076F84A6881754
S123DD202605C6121A01397FD411EC881110AE8820276ABDDDB725EE4F5F6D022774EB029F
S123DD408900BFD40FBED40B10A38820242CBED40F30033402B6D4114CB7D41181542708BB
S123DD6081A83502274C20D23404BED40BEC88408D45253E3504350220C0A38820BED40FE0
S123DD80A6023404A0E04A1F89A684EB01BED40B2505E1883C2306E0883C4C20F5BDD628C2
S123DDA02514BED40BEC884210A388202714C6192002C6181A0139BDD6282508BED40BC6BF
S123DDC0443A1CFE39BED40BC60BA68824A70430015A26F639BED40BA6034C8104240FA732
S116DDE0032605BDDE0F2003BDDE1225E839C6101A013914
S123DE007EDEBB7EDED47EDEED7EDF1D7EDF337EDF737EDF747EDF157EDF197EDF0100007D
S123DE2000000002020202010101010000000000000000860A8D15860D8D117EFC0B39347D
S123DE400235827DDEB92720AD9FDEB93402B6FE6D8420810027F73502B7FE68393402B6B4
S123DE60FE6D840181003582BDDE6D20DFB6FE6D8401810027F7B6FE6839338C35EE442788
S123DE800CA6D4A54627F610AEC46ED8023B34708D142704EF04AF2435F034708D0826042D
S123DEA0AE04AF4435F0338C0931C4AC442706EE4426F61CFB3900000100003402B6DE1F32
S123DEC08101270981022707C61F57358220F935027EE0853402B6DE1F8101270981022770
S123DEE007C61F57358220F935027EE102B6DE1F8101270881022706C61F573920FAC6000A
S123DF0039B6DE1F8101270881022706C61F573920FAC60039BDDF7A39BDE166398D14B63F
S123DF20DE1F8101270881022706C61F573920FAC60039A60381042504C61F57398EDE2396
S123DF403086E684C1012706C102270220EBF7DE1FB7DE1E8EDE273086E684F7DE208EDEFC
S123DF602B483086E684F7DE213001E684F7DE22C6003939390000000000BDCEB1BDCEB199
S123DF808EE2FEBDCE7BBDCEB1BDE077261D8EE306BDCE7BCCFE60FDDF788EDF78BDCFCC3E
S123DFA0BDE166BDDFD125037EDFB48EE30DBDCE7B7EDFCDBDCEB18EE31ABDCE7B8600BDF5
S123DFC0E01C8EE32BBDCE7B8601BDE01CBDCEB1398600B7FE60BDE191253E860FBDE28DFC
S123DFE01F18844081002731860ABDE28D1F1881012626860BBDE28D1F188101261B860C3F
S123E000BDE28D1F1881002610860DBDE28D1F18810026051CFE7EE01B1A01398401484844
S123E02048488AE01F8986001F01860EBDE2B2BDE1912531860F8E00ECBDE2B2BDE1BA254D
S123E04024BDE1EA8EE33CBDCE7BB6E3C1BDE2F0B6E3C0BDE2F0B6E3BFBDE2F0B6E3BEBD91
S123E060E2F07EE0718EE30DBDCE7BBDCEB11A0139BDCEB11CFE39BDE2E28600B7FE60B686
S123E080FE608100395AB7E345F0E34524014A3410F7E345BDE0B435102618B6E34584010A
S123E0A0C6001F02C600A6A9E346A78031215CC10026F339BDE269B6E344B1E3412613B6A6
S123E0C0E343B1E340260BB6E342B1E33F2603C60039BDE1912528BDE226860F8E0020BDFA
S123E0E0E2B2BDE1BA2518BDE1EAB6E344B7E341B6E342B7E33FB6E343B7E340C60039C684
S123E1000F3934205AB7E345F0E34524014A3410F7E345BDE0B42641B6E3458401C6001F3C
S123E12002C600A680A7A9E34631215CC10026F3BDE1912524860F8E0030BDE2B2BDE1BA78
S123E1402517BDE208BDE191250F86FFB7E341B7E33FB7E340C60035A0C6FFF7E341F7E30D
S123E1603FF7E34035A08600B7E344B7E342B7E34386FFB7E341B7E33FB7E3408680B7FE82
S123E180628E0100301F8C000026F98600B7FE623934128600B7DF76B7DF77860FBDE28D14
S123E1A01F188480270F7CDF7626F07CDF7726EB1A017EE1B71CFE35923934328600B7DF53
S123E1C076B7DF77860FBDE28D1F1884888108271584018101270A7CDF7626E87CDF7726E0
S123E1E0E31A017EE1E81CFE35B2108E00008608BDE2901F10E7A9E3463121A7A9E3463196
S123E20021108C020026E739108E0000E6A9E3463121A6A9E34631211F018608BDE2B21074
S123E2208C020026E739B6DE208401484848488AE01F8986001F01860EBDE2B28600F6E3B1
S123E240431F01860DBDE2B28600F6E3421F01860CBDE2B28600F6E3441F01860BBDE2B22A
S123E2608E0001860ABDE2B23954442402CA80F7E344B7E342FCDE2154442402CA80F7E312
S123E280432408B6E3428A80B7E3423939BDE2D4B7FE628A40B7FE623402F6FE60B6FE61CE
S123E2A01F013502B7FE628840B7FE628600B7FE6239BDE2E234021F10F7FE60B7FE6135B1
S123E2C002B7FE628A20B7FE628820B7FE628600B7FE623934028600B7FE628692B7FE63C8
S123E2E0358234028600B7FE628680B7FE63358234023402BDCFD83502BDCFDC35825050F5
S123E300494445203A0420494F3D307804204E4F542050524553454E540420505049444540
S123E320303A20424C4F434B533D04205050494445313A20424C4F434B533D043078040088
S109E340000000000000D3
S116EFE0F3010010110070212001EDB0DBFE0E00CD0500FD
S123FC0010CEC0004F1F8B4FBDFD8CBDFD81863EBDFD8DBDFD9EBDFD8D8144271E814C27D1
S123FC2017814D273F815027528147272C863FBDFD8DBDFD817EFC0B7EFC8DBDFD7CBDFD4D
S123FC401E3410BDFD7CBDFD1E3510BDFD81BDFCC7BCFDB02BF87EFC0BBDFD1EBDFD7CBE53
S123FC60FDB06E84BDFD1EBDFD7CBDFD7ABDFD2C301FA784A18426477EFC0B10FFFDACBEB2
S123FC80FDACC609BDFD7A5A26FA7EFC0BBDFD9E815326F9BDFD9E81392729813126EE7FC3
S123FCA0FDAEBDFD2C8002B7FDAF8D72BDFD2C7AFDAF2706A784300120F27CFDAE27CE8682
S123FCC03FBDFD8D7EFC0BBDFD63BDFD7C3410C610BDFD7A5A26FA3510BDFD7C863ABDFD05
S123FCE08DC610A60081202B0A817F2A06BDFD8D7EFCF8862EBDFD8D30015A26E6BDFD816B
S123FD0039BDFD9E3402BDFD8D350281302BB581392F0A81412BAD81462EA98007398D0C85
S123FD20B7FDB08D07B7FDB1BEFDB0398DD3484848481F894D8DCA840F3404ABE01F894DA7
S123FD40FBFDAEF7FDAE3944444444840F8B30813923028B077EFD8DA6008DEBA6008DEB0B
S123FD603001393410350234028DDC35028DDC350234028DD235028DD2398DDC86207EFD36
S123FD808D860DBDFD8D860ABDFD8D39393402B6FE6D8420810027F73502B7FE6839B6FED4
S115FDA06D8401810027F7B6FE68393B0000000000002C
S111FFF2FDABCD00CD00FDABCD00CD00CD00AC
