S10CD4007ED43A7ED45D7ED47F13
S123D435FF00000000BDDE158ED409C60A8D118E0005BFD413BFD4157FD41A8ED41BC61AA0
S123D4556F805A26FB7EC70CBDC709BED40927EB3088E4BFD40B3420BDDADA352024ECBE9C
S123D475D40B6F02BDC70CC6FF397DCCFC2703BDC7093424BFD40B6F01E6842622E6022792
S123D4951AC1022711BDD5BCBED40B25267DCCFC26235F352439BDD6D720EDC6122014C165
S123D4B5162304C601200C5A588ED4D2AD95BED40B2402E701BDC70C6D01352439D98FD97F
S123D4D5E2DB10DADAD5EAD825D840D87FD649D6A7D972DBEDDB43D6A1DA9ED818D577D5BA
S123D4F598DB1EDDD5DD13DCFD8D202605C6021A0139ED00AE006F006F01398D0E2705C6D3
S123D5150D1A0139EC94ED001CFE39FCD40BC3001C8ED40910AE0026031CFB3910A300269C
S123D5350139AE0020EEBED40B4F5F8D02C62FA7881130015A26F839BED40BC60BA604A72C
S123D555882430015A26F639BED40BC60BA6048A203402A688248A20A1E0260530015A26D5
S123D575EC39BED40BE602542479E688237ED608BED40BE688226C88223AA788405C261F7D
S123D5951A0139BED40BE602C403C1032655CA80E702E60FC580260AE688233AA788401CA0
S123D5B5FE39C60B1A0139A6883B2B3C27076A883B8620201D8D31251B8118221527F6817C
S123D5D509260C8D23250DBED40BA7883B20D84D27E31CFE39BDDAC8250985012705A78402
S123D5F57ED9A9C6121A0139BED40BE68822270A6C88223AA688401CFE398D0324EA39BEE2
S123D615D40BEC88406C882126036C882010830000271CED881E34028604A7882235028DCE
S123D635132410C5802704C6102006C6092002C6081A01398D25BED40BBDDE0C25128D1140
S123D655BDDE0026031CFE3934048D17350424EE39BED40BEC881E308840394FB7D411B738
S123D675D41239C5102611C5802624F6D4115CC1052705F7D41120147FD411F6D4125CC141
S123D69507270CF7D412BED40BBDDE091CFE391A01398DC7BED40BBDDE0C2520BED40B8D6B
S123D6B5B0BDDE03260AB6D4352737BDDE062732C540260B34048DAB350424E039C6201AA0
S123D6D50139BED40BE6883B2B3D8120260F5CE7883BC17F260C200D8D0B24E6395D272748
S123D6F520F61CFE393402C10126048620201086098D143502250F3402BED40BA6883B6F6A
S123D715883B8D03350239BED40BE602C1021026FED1E68822C104260834028D213502251D
S123D7350FBDD585240AC604BED40BE788221CFE39BED40B4F5FED8820ED88422027E688E5
S123D755122622E6881727446F88178D3F252A8DE025268DDC2522BED40BC602E78817ECFE
S123D77588117EDC998D0EBED40BED8840BDD6A7241A7EDBD88D03EC0039BED40BE60386AD
S123D795063D8ED41D3ABFD41B6D00398DE72605C6071A0139BED40BED88136D881226030B
S123D7B5ED88116C881626036C88156D8817270BBDDC5A25DDBED40BEC8813BDD62825D285
S123D7D5BED40BEC884034068DB03506ED00260A6F026F036F046F05200810AE04313F10DC
S123D7F5AF044FBED40B6C882126036C88205FA7884030015A26F8BED40BEC8820ED8842C0
S123D8151CFE395F3404C603200EBED415BFD413F6D4133404F6D414BED40BE78841350448
S123D835E788407FD4185FE7882239BED40BE68822261EBDD6142531BED40B7DD4182606EC
S123D855CC0005FDD4188610A78822EC881EED882FA68822A78831C6183414BDD5FD35142A
S123D875A70430015A26F21CFE39BED40BA68831A78822C6183414A604BDD71C35143001A7
S123D8955A26F27ED6A7BED40BA603A78823B6D4177DD41A2631A703BED415BFD4138C0084
S123D8B505270C8D222337BED418BFD41320EFBED40BA68823A7032A0EBDDDD525368D0781
S123D8D5231CBDDDC520F2BED40B7FD41ABDD54DBDD825BDD8402407C10827181A0139BEC2
S10ED8F5D40BA604270C2A028D0FBDE3
S123D900D55D26E41CFE398D051CFB1CFE39A68833260CEC882FED8832A68831A7883439A0
S123D920BDD78F26178D182515C60610BED40BBED41BA6A85D3121A7805A26F61CFE39BDD4
S123D940D818BDD6142508BED40BC610E7882239BDD78F8DEA25F8C60610BED40BBED41BE5
S123D960A680A7A85D31215A26F6BDD6A724E07EDBD8BED40B8602A702EC882FED881EBDD9
S123D980D6492508BDD87F24057EDBD8C60A39BDD4FE253DBDD89B2538263BBED40B7DD4F3
S123D9A01A2706A60F85202629BDDCD8252AEC8811ED8840BDDA8DE6881727133404BDD6CB
S123D9C0143504250C5A26F4BED40B5FE788221CFE39C6112002C6043404BDD51035041A81
S123D9E00139BED40B6D032A08BDDDD52403C61039BDD4FE25E2BDD53BBDD92025DABDD858
S123DA009B25D52604C60320CFBDDCD825CABED40BC60A6F0F30015A26F9BED40BEC883253
S123DA202734ED882FA68834A78831FCCC0EED8819B6CC10A7881BA6038ED436A686BED4E2
S123DA400BA78818BDDDC5BDD972258C8D3F8604A788221CFE39BED40B6F88176C8812ECC1
S123DA60882FBDD628250DBDD77A2508BDD6A72406BDDBD87ED9D8BED40BEC881EED8832EA
S123DA808610A78834BDD95025EA7EDA09BED40BA684A7026F846F883B4FA78822398D2810
S123DAA0250E6F00441025FB6BC604E788221CFE39BED40BA6028183260B8603A702BDD6F4
S123DAC0A7102501131CFE398DE7250DBED40BA602810323F0C6121A01398DEC25318102FF
S123DAE02708BED40B6F027ED510A688122605BDDBBE20198DC82517BED40B6D8817270522
S123DB00BDDCAF250ABDD9722505BDD95024D339BDD98F2528BDD614252386032018BDD98A
S123DB208F251ABED40BA60F85802612EC8813BDD62825098602BED40BA7021CFE39C60B22
S123DB401A01398D35BDD89B252A2724BED40BC60BA68824A70430015A26F68D4D2515BEFD
S123DB60D40BA60F858026D6856026098D0C2055C6031A0139C60C1A0139BED40B860BB7C2
S123DB80D411A604E68835A78835E70430017AD41126EFBED40BA60C260CC603A6883DA7FF
S123DBA00C30015A26F6BED40B398DCEBDD89B25072606BED40B1CFE39C6041A0139BED455
S123DBC00B86FFA704BDD972BED40B8600A70239ED8840BDD6A72414C5402608C580270A29
S123DBE0C6102006C60B2002C60A1A0139BDD920255E8DB8255ABED40BA60F8580265285BD
S123DC00602652BDD78FBED41BEC02260FBED40BEC88112733BED41BED002014BED40BBD91
S123DC20D628252CBED40BEC8811271C8DA22520BED40BEC8813BED41BED02BED40BEC88E7
S123DC4015BED41BE304ED04BDDBBE2503BDD95039C60B2002C60C1A0139EC881E5CE18819
S123DC603C2303C6014C10A38813260EA6883781FF27074CA788371CFE398D332530BED4EA
S123DC800BA6883A8B032616EC881E10A388112705C6171A0139EC8840ED88388604A788EE
S123DCA03AEC8813ED88358601A788371CFE39EC8838BDD62825F7BED40B1F12E6883A12AA
S123DCC03AC603A6A8353121A7884030015A26F3BDD6A724D97EDBD8BDD818BDD61425462E
S123DCE0BED40B4F5FED8820A68867A7883C5F6F884030015A26F8BED40B1CFE39BED40B74
S123DD00A68817271DEC88208300012A037EDDB2ED8820BDDAC8250E4624076F00A68817D8
S123DD202605C6121A01397FD411EC881110AE8820276ABDDDB725EE4F5F6D022774EB029F
S123DD408900BFD40FBED40B10A38820242CBED40F30033402B6D4114CB7D41181542708BB
S123DD6081A83502274C20D23404BED40BEC88408D45253E3504350220C0A38820BED40FE0
S123DD80A6023404A0E04A1F89A600EB01BED40B2505E1883C2306E0883C4C20F5BDD62846
S123DDA02514BED40BEC884210A388202714C6192002C6181A0139BDD6282508BED40BC6BF
S123DDC0443A1CFE39BED40BC60BA68824A70430015A26F639BED40BA6034C8104240FA732
S116DDE0032605BDDE0F2003BDDE1225E839C6101A013914
