S113C840FF00000073746172747570007478740072
S123CC0008183A000006000000FF1B00000000000000000000000000000000000000000096
S11ECC20000000000000000000000000000000010000000000000000000000F4
S104CC496086
S123CC4ECCAC574841543F0443414E2754205452414E53464552044E4F5420464F554E4470
S123CC6E044449534B204552524F522023044452495645204E4F54205245414459044745D2
S123CC8E5400D21A4D4F4E00D35600271003E80064000A6572726F727300007379732B2B4D
S105CCAE2B0451
S104CCC03936
S104CCD8391E
S104CCE43912
S123CCF801000000000000007ECD577ECD677ECDAB7ECD097ECD0C7ECD0F7ECD127ECEF728
S123CD187ECF3D7ECE2A7ECE797ECFE97ECEB17ED00A7ECDE47ED0327ED1B07ED0E77ED373
S123CD38547ECF827ECFD07ED28A7ED13D7ECFCC7ED1867ED3347ECD4E7ECDFF7ECDFF1081
S123CD58CEC07F7FCC11BDD4007FCC28BDC40010CEC07FBDDE188ECD03BFCC168EC700AFF6
S123CD789FD3E9BED3E7AF9FD3EB8ECCF8BFCC317FCC347FCC4C8D54B6CC11B1CC02260576
S123CD987CCC15200E7DCC28102605A2BDD40326B28D7ABDD0D0810D27EB8EC8407CCC0D43
S123CDB8BDD03225168ECC8C8D3E2709BECC1227078D3526036E9801BDD2398ECC508615B3
S123CDD8B7CC20BDCE797FCC117ECD67BECD13BFCD10BECD0DBFCD0A7FCC237FCC227FCCF4
S123CDF8217FCC267FCC2439108EC844A6A0815F23028020A18026086D0026F06D20270CB6
S123CE186D8026FC30026D0026DE1CFB39BECC4E8D4F8EC080BFCC14BDCEF7B1CC0127EDBF
S123CE38B1CC002718810D270D810A272B811F23E78CC0FF27E2A780810D26DC398CC080C1
S123CE5827CB301FB6CC07810826088620BDCF62B6CC07BDCF6220C0860DBDCF3D86202028
S123CE78D08D36A60081042773BDCF3D300120F3BDCD4E2769AD9FD3E5847FB1CC0A265EB7
S123CE987FCC1AAD9FD3E5847FB1CC0A2750810D26F17FCC116E9FCC167DCC2126278DD008
S123CEB8B6CC032720B1CC1A22187FCC1A7DCC0927028DCC3404F6CC0827058D085A26FB42
S123CED835047CCC1A860D8D5C860A8D583404F6CC0527064F8D4E5A26FA35041CFE397DD1
S123CEF8CC23261A7DCC2627108D1A7DCC2F27117DCC24270C8D532008BDCD092003BDCD02
S123CF180C7FCC1A39BFCC47BECC262006BFCC47BECC24BDD4062604BECC47397FCC24BD2C
S123CF38D28A7ECD037DCC212620811F22057FCC2920177CCC293402B6CC04270BB1CC2904
S123CF582406BDCEB17CCC29350234027DCC2226137DCC2427048DB5200D7DCC262608BD6C
S123CF78CD0F2003BDCD123502397FCC4AF7CC1D8604B7CC4DEC008ECC998D0B30027ACCCC
S123CF984D26F71F98203D7FCC4B10A3002507A3007CCC4B20F43402B6CC4B26107DCC4A6C
S123CFB8260B7DCC1D270B86208D2320057CCC4A8D1235828D023001A6008D04A600200468
S123CFD844444444840F8B30813923028B077ECF3D81302514813923168141250C815A230E
S123CFF80E81612504817A23061A01B7CC11391CFE393410BECC14B6CC18B7CC19A680B7A8
S123D018CC18810D2710B1CC02270BBFCC1481202604A10027E78DB935908615A70186FFAE
S123D038A7036F046F0CBDD0D08608B7CC4B8D34252E260F8D2E25282609BCCC3F276C8D1C
S123D058232368BECC3F6D0427616D032A0F7DCC0D2705B6CC0B2003B6CC0CA7037FCC0DD9
S123D078BECC3F398D8C254381392215BECC3F6D032A388403A703BDD00A242F812E1CFEA1
S123D09839F6CC4B2B253404C005F7CC4B3504B1CC4925028020A70430015ABDD00A240814
S123D0B8812D2704815F26065D26E41A01395D27CB6F0430015A20F6BFCC3FBECC14A60043
S123D0D881202604300120F6BFCC14BECC3F393430E60C261E318C1D810F2217C6033D310D
S123D0F8ABC603A6A0B1CC4925028020A70C30015A26F035B062696E747874636D64626104
S123D1187373797362616B7363726461746261636469727072746F757472656C7266696477
S123D1386576617263BDD229BDD00A25228D2625183404C60478CC1C79CC1B5A26F73504CA
S123D158BBCC1CB7CC1C5C20DFBDD00A24FB39BECC1B1CFE39815F2302802080472A0C8B02
S123D178062A048B072A048B0A2AE71A0139BDD229BDD00A25D9813922CF840F34043402AC
S123D198FCCC1B58495849F3CC1B5849EBE08900FDCC1B35045C20D97FCC1D8D3D81022731
S123D1B815811626F68D33B7CC1E8D2EB7CC1F8601B7CC1D20E58D221F898D1E1E89F3CC39
S123D1D81BFDCC3D8D141F894D27D08D0DBECC3DA780BFCC3D5A26F320C18EC840BDD406B4
S10BD1F82711A6018108260E8F
S123D20032628604A700BDD406260A1CFE39B7CC20810427728D737ECDDE86008D35250FC5
S123D2208D077CCC4C8D8920F14F5FFDCC1B39F6CC4C1027FB9D7ECD0386028D228DEABD3A
S123D240D1B0F6CC1D27046E9FCC1E8ECC5686817ECDD834028EC840BDD0323502251A8EDF
S123D260C840BDD0E78EC8408601A700BDD1F2102500BB86FFA7883B39B6CC11810D270783
S123D280B1CC021026FB4C1A01393430A601B7CC202763BDCDE410BECC2D2608811027588F
S123D2A0108ECCA18EC8406D0227098604A700BDD406262E8EC838C60B8D6E8EC840B6CC9C
S123D2C00BA7038601A700BDD4062616B6CC204A47474C6F8820A788218615A700BDD4068E
S123D2E0271E8ECC6FBDCE79BECC3FB6CC20A7016F005FBDCF8235B08ECC7CBDCE7920F654
S123D300BDCEB18EC840B6CC204A8403C63F3DCB04E78822BDD40626C9BDCF3D810D26F42B
S123D3208604A700BDD40620CD34307ED0FB8ECC657ECDDB3506FDCC4310FFCC457FCC20D0
S123D3407CCC287ECDB27FCC2810FECC45F6CC206E9FCC433A397DCCFC26046E9FD3F38E89
S10FD360C840861BA701BDD28A7ECD67A1
