S123C4002005822E893A818639B7D3FDCCCD03FDCC16FCD3F7FDCD4FFCD3F9FDCD10FDCDF3
S123C42013FCD3FBFDCD0AFDCD0DAD9FD3F58EC4ECBDCD1EBDCD24FCCC4E34068EC51ABF4C
S123C440CC4EBDCD1EBDCD1B3506FDCC4E108ECC0E8D4525E28D4125DE8D3D25DA108ED3C3
S123C460708D3525D28D3125CE8D2D25CA7FD373BDCD247ECD03108EC08010BFCC14C680A1
S123C480BDD40626295A2726A7A0810D26F28604A784BDD4067ECD06BDCD483410250DA693
S123C4A0A45D1A012704A6611CFEA7A035868EC4D9BDCD1E7ECD0334148EC517860420068B
S123C4C0800AA7848601AB828A30A784813922F03594AD9FD3F186023943616E2774207265
S123C4E0756E20535441525455502E04464C455820666F72204E68796F64796E652036383E
S123C50030392056657273696F6E20322E393A32202D20000000004B1504446174652061B3
S121C5206E642054494D4520284D4D2F44442F59592048482F4D4D2F5353293F200484
S123C840FF0000007374617274757000747874001A5010CEC080FCDFDCBED0F034168E9934
S123C860AA108EC200C6FF1700B0BFD0F0BCD0F0261634041700A3F7D0F1C00124F6350429
S123C880170097F1D0F127014FA7A2270317FC27C00124D33516FDFFFCBFD0F04F8EC100F8
S123C8A0F6DFDCC80F6F8BF6DFDDC80F6F8B8D725D27056FA05A26FB31348EFFF0C610A6FF
S123C8C0A0A7805A26F9B6CC2B484848485F830001FDCC2B17FBFBBACC33F6DFD0C5F02729
S123C8E0028A01F6E0052715C1FF2711F1E0C5260CF1E0452607F1E08526028A04BEE800DB
S123C90034108E99AABFE800BCE800351026028A10BFE800B7CC337ECD001F98880FB7FF00
S123C920FD39C60C108EDFD08EC1008CC200270DA68027F7A7A07CCC2B5A26EF398EC100D8
S115C9408CC110270CA68027F7A7A07CCC2B5A26EF39AB
S115C70039393939393939393939393939393939393921
S104C71B0019
S113C840FF00000073746172747570007478740072
S123CC0008183A000006000000FF1B00000000000000000000000000000000000000000096
S11ECC20000000000000000000000000000000010000000000000000000000F4
S104CC496086
S123CC4ECCAC574841543F0443414E2754205452414E53464552044E4F5420464F554E4470
S123CC6E044449534B204552524F522023044452495645204E4F54205245414459044745D2
S123CC8E5400D21A4D4F4E00D35600271003E80064000A6572726F727300007379732B2B4D
S105CCAE2B0451
S104CCC03936
S104CCD8391E
S104CCE43912
S123CCF801000000000000007ECD577ECD677ECDAB7ECD097ECD0C7ECD0F7ECD127ECEF728
S123CD187ECF3D7ECE2A7ECE797ECFE97ECEB17ED00A7ECDE47ED0327ED1B07ED0E77ED373
S123CD38547ECF827ECFD07ED28A7ED13D7ECFCC7ED1867ED3347ECD4E7ECDFF7ECDFF1081
S123CD58CEC07F7FCC11BDD4007FCC28BDC40010CEC07FBDDE188ECD03BFCC168EC700AFF6
S123CD789FD3E9BED3E7AF9FD3EB8ECCF8BFCC317FCC347FCC4C8D54B6CC11B1CC02260576
S123CD987CCC15200E7DCC28102605A2BDD40326B28D7ABDD0D0810D27EB8EC8407CCC0D43
S123CDB8BDD03225168ECC8C8D3E2709BECC1227078D3526036E9801BDD2398ECC508615B3
S123CDD8B7CC20BDCE797FCC117ECD67BECD13BFCD10BECD0DBFCD0A7FCC237FCC227FCCF4
S123CDF8217FCC267FCC2439108EC844A6A0815F23028020A18026086D0026F06D20270CB6
S123CE186D8026FC30026D0026DE1CFB39BECC4E8D4F8EC080BFCC14BDCEF7B1CC0127EDBF
S123CE38B1CC002718810D270D810A272B811F23E78CC0FF27E2A780810D26DC398CC080C1
S123CE5827CB301FB6CC07810826088620BDCF62B6CC07BDCF6220C0860DBDCF3D86202028
S123CE78D08D36A60081042773BDCF3D300120F3BDCD4E2769AD9FD3E5847FB1CC0A265EB7
S123CE987FCC1AAD9FD3E5847FB1CC0A2750810D26F17FCC116E9FCC167DCC2126278DD008
S123CEB8B6CC032720B1CC1A22187FCC1A7DCC0927028DCC3404F6CC0827058D085A26FB42
S123CED835047CCC1A860D8D5C860A8D583404F6CC0527064F8D4E5A26FA35041CFE397DD1
S123CEF8CC23261A7DCC2627108D1A7DCC2F27117DCC24270C8D532008BDCD092003BDCD02
S123CF180C7FCC1A39BFCC47BECC262006BFCC47BECC24BDD4062604BECC47397FCC24BD2C
S123CF38D28A7ECD037DCC212620811F22057FCC2920177CCC293402B6CC04270BB1CC2904
S123CF582406BDCEB17CCC29350234027DCC2226137DCC2427048DB5200D7DCC262608BD6C
S123CF78CD0F2003BDCD123502397FCC4AF7CC1D8604B7CC4DEC008ECC998D0B30027ACCCC
S123CF984D26F71F98203D7FCC4B10A3002507A3007CCC4B20F43402B6CC4B26107DCC4A6C
S123CFB8260B7DCC1D270B86208D2320057CCC4A8D1235828D023001A6008D04A600200468
S123CFD844444444840F8B30813923028B077ECF3D81302514813923168141250C815A230E
S123CFF80E81612504817A23061A01B7CC11391CFE393410BECC14B6CC18B7CC19A680B7A8
S123D018CC18810D2710B1CC02270BBFCC1481202604A10027E78DB935908615A70186FFAE
S123D038A7036F046F0CBDD0D08608B7CC4B8D34252E260F8D2E25282609BCCC3F276C8D1C
S123D058232368BECC3F6D0427616D032A0F7DCC0D2705B6CC0B2003B6CC0CA7037FCC0DD9
S123D078BECC3F398D8C254381392215BECC3F6D032A388403A703BDD00A242F812E1CFEA1
S123D09839F6CC4B2B253404C005F7CC4B3504B1CC4925028020A70430015ABDD00A240814
S123D0B8812D2704815F26065D26E41A01395D27CB6F0430015A20F6BFCC3FBECC14A60043
S123D0D881202604300120F6BFCC14BECC3F393430E60C261E318C1D810F2217C6033D310D
S123D0F8ABC603A6A0B1CC4925028020A70C30015A26F035B062696E747874636D64626104
S123D1187373797362616B7363726461746261636469727072746F757472656C7266696477
S123D1386576617263BDD229BDD00A25228D2625183404C60478CC1C79CC1B5A26F73504CA
S123D158BBCC1CB7CC1C5C20DFBDD00A24FB39BECC1B1CFE39815F2302802080472A0C8B02
S123D178062A048B072A048B0A2AE71A0139BDD229BDD00A25D9813922CF840F34043402AC
S123D198FCCC1B58495849F3CC1B5849EBE08900FDCC1B35045C20D97FCC1D8D3D81022731
S123D1B815811626F68D33B7CC1E8D2EB7CC1F8601B7CC1D20E58D221F898D1E1E89F3CC39
S123D1D81BFDCC3D8D141F894D27D08D0DBECC3DA780BFCC3D5A26F320C18EC840BDD406B4
S10BD1F82711A6018108260E8F
S123D20032628604A700BDD406260A1CFE39B7CC20810427728D737ECDDE86008D35250FC5
S123D2208D077CCC4C8D8920F14F5FFDCC1B39F6CC4C1027FB9D7ECD0386028D228DEABD3A
S123D240D1B0F6CC1D27046E9FCC1E8ECC5686817ECDD834028EC840BDD0323502251A8EDF
S123D260C840BDD0E78EC8408601A700BDD1F2102500BB86FFA7883B39B6CC11810D270783
S123D280B1CC021026FB4C1A01393430A601B7CC202763BDCDE410BECC2D2608811027588F
S123D2A0108ECCA18EC8406D0227098604A700BDD406262E8EC838C60B8D6E8EC840B6CC9C
S123D2C00BA7038601A700BDD4062616B6CC204A47474C6F8820A788218615A700BDD4068E
S123D2E0271E8ECC6FBDCE79BECC3FB6CC20A7016F005FBDCF8235B08ECC7CBDCE7920F654
S123D300BDCEB18EC840B6CC204A8403C63F3DCB04E78822BDD40626C9BDCF3D810D26F42B
S123D3208604A700BDD40620CD34307ED0FB8ECC657ECDDB3506FDCC4310FFCC457FCC20D0
S123D3407CCC287ECDB27FCC2810FECC45F6CC206E9FCC433A397DCCFC26046E9FD3F38E89
S10FD360C840861BA701BDD28A7ECD67A1
S10CD4007ED43A7ED45D7ED47F13
S123D435FF00000000BDDE158ED409C60A8D118E0005BFD413BFD4157FD41A8ED41BC61AA0
S123D4556F805A26FB7EC70CBDC709BED40927EB3088E4BFD40B3420BDDADA352024ECBE9C
S123D475D40B6F02BDC70CC6FF397DCCFC2703BDC7093424BFD40B6F01E6842622E6022792
S123D4951AC1022711BDD5BCBED40B25267DCCFC26235F352439BDD6D720EDC6122014C165
S123D4B5162304C601200C5A588ED4D2AD95BED40B2402E701BDC70C6D01352439D98FD97F
S123D4D5E2DB10DADAD5EAD825D840D87FD649D6A7D972DBEDDB43D6A1DA9ED818D577D5BA
S123D4F598DB1EDDD5DD13DCFD8D202605C6021A0139ED00AE006F006F01398D0E2705C6D3
S123D5150D1A0139EC94ED001CFE39FCD40BC3001C8ED40910AE0026031CFB3910A300269C
S123D5350139AE0020EEBED40B4F5F8D02C62FA7881130015A26F839BED40BC60BA604A72C
S123D555882430015A26F639BED40BC60BA6048A203402A688248A20A1E0260530015A26D5
S123D575EC39BED40BE602542479E688237ED608BED40BE688226C88223AA788405C261F7D
S123D5951A0139BED40BE602C403C1032655CA80E702E60FC580260AE688233AA788401CA0
S123D5B5FE39C60B1A0139A6883B2B3C27076A883B8620201D8D31251B8118221527F6817C
S123D5D509260C8D23250DBED40BA7883B20D84D27E31CFE39BDDAC8250985012705A78402
S123D5F57ED9A9C6121A0139BED40BE68822270A6C88223AA688401CFE398D0324EA39BEE2
S123D615D40BEC88406C882126036C882010830000271CED881E34028604A7882235028DCE
S123D635132410C5802704C6102006C6092002C6081A01398D25BED40BBDDE0C25128D1140
S123D655BDDE0026031CFE3934048D17350424EE39BED40BEC881E308840394FB7D411B738
S123D675D41239C5102611C5802624F6D4115CC1052705F7D41120147FD411F6D4125CC141
S123D69507270CF7D412BED40BBDDE091CFE391A01398DC7BED40BBDDE0C2520BED40B8D6B
S123D6B5B0BDDE03260AB6D4352737BDDE062732C540260B34048DAB350424E039C6201AA0
S123D6D50139BED40BE6883B2B3D8120260F5CE7883BC17F260C200D8D0B24E6395D272748
S123D6F520F61CFE393402C10126048620201086098D143502250F3402BED40BA6883B6F6A
S123D715883B8D03350239BED40BE602C1021026FED1E68822C104260834028D213502251D
S123D7350FBDD585240AC604BED40BE788221CFE39BED40B4F5FED8820ED88422027E688E5
S123D755122622E6881727446F88178D3F252A8DE025268DDC2522BED40BC602E78817ECFE
S123D77588117EDC998D0EBED40BED8840BDD6A7241A7EDBD88D03EC0039BED40BE60386AD
S123D795063D8ED41D3ABFD41B6D00398DE72605C6071A0139BED40BED88136D881226030B
S123D7B5ED88116C881626036C88156D8817270BBDDC5A25DDBED40BEC8813BDD62825D285
S123D7D5BED40BEC884034068DB03506ED00260A6F026F036F046F05200810AE04313F10DC
S123D7F5AF044FBED40B6C882126036C88205FA7884030015A26F8BED40BEC8820ED8842C0
S123D8151CFE395F3404C603200EBED415BFD413F6D4133404F6D414BED40BE78841350448
S123D835E788407FD4185FE7882239BED40BE68822261EBDD6142531BED40B7DD4182606EC
S123D855CC0005FDD4188610A78822EC881EED882FA68822A78831C6183414BDD5FD35142A
S123D875A70430015A26F21CFE39BED40BA68831A78822C6183414A604BDD71C35143001A7
S123D8955A26F27ED6A7BED40BA603A78823B6D4177DD41A2631A703BED415BFD4138C0084
S123D8B505270C8D222337BED418BFD41320EFBED40BA68823A7032A0EBDDDD525368D0781
S123D8D5231CBDDDC520F2BED40B7FD41ABDD54DBDD825BDD8402407C10827181A0139BEC2
S10ED8F5D40BA604270C2A028D0FBDE3
S123D900D55D26E41CFE398D051CFB1CFE39A68833260CEC882FED8832A68831A7883439A0
S123D920BDD78F26178D182515C60610BED40BBED41BA6A85D3121A7805A26F61CFE39BDD4
S123D940D818BDD6142508BED40BC610E7882239BDD78F8DEA25F8C60610BED40BBED41BE5
S123D960A680A7A85D31215A26F6BDD6A724E07EDBD8BED40B8602A702EC882FED881EBDD9
S123D980D6492508BDD87F24057EDBD8C60A39BDD4FE253DBDD89B2538263BBED40B7DD4F3
S123D9A01A2706A60F85202629BDDCD8252AEC8811ED8840BDDA8DE6881727133404BDD6CB
S123D9C0143504250C5A26F4BED40B5FE788221CFE39C6112002C6043404BDD51035041A81
S123D9E00139BED40B6D032A08BDDDD52403C61039BDD4FE25E2BDD53BBDD92025DABDD858
S123DA009B25D52604C60320CFBDDCD825CABED40BC60A6F0F30015A26F9BED40BEC883253
S123DA202734ED882FA68834A78831FCCC0EED8819B6CC10A7881BA6038ED436A686BED4E2
S123DA400BA78818BDDDC5BDD972258C8D3F8604A788221CFE39BED40B6F88176C8812ECC1
S123DA60882FBDD628250DBDD77A2508BDD6A72406BDDBD87ED9D8BED40BEC881EED8832EA
S123DA808610A78834BDD95025EA7EDA09BED40BA684A7026F846F883B4FA78822398D2810
S123DAA0250E6F00441025FB6BC604E788221CFE39BED40BA6028183260B8603A702BDD6F4
S123DAC0A7102501131CFE398DE7250DBED40BA602810323F0C6121A01398DEC25318102FF
S123DAE02708BED40B6F027ED510A688122605BDDBBE20198DC82517BED40B6D8817270522
S123DB00BDDCAF250ABDD9722505BDD95024D339BDD98F2528BDD614252386032018BDD98A
S123DB208F251ABED40BA60F85802612EC8813BDD62825098602BED40BA7021CFE39C60B22
S123DB401A01398D35BDD89B252A2724BED40BC60BA68824A70430015A26F68D4D2515BEFD
S123DB60D40BA60F858026D6856026098D0C2055C6031A0139C60C1A0139BED40B860BB7C2
S123DB80D411A604E68835A78835E70430017AD41126EFBED40BA60C260CC603A6883DA7FF
S123DBA00C30015A26F6BED40B398DCEBDD89B25072606BED40B1CFE39C6041A0139BED455
S123DBC00B86FFA704BDD972BED40B8600A70239ED8840BDD6A72414C5402608C580270A29
S123DBE0C6102006C60B2002C60A1A0139BDD920255E8DB8255ABED40BA60F8580265285BD
S123DC00602652BDD78FBED41BEC02260FBED40BEC88112733BED41BED002014BED40BBD91
S123DC20D628252CBED40BEC8811271C8DA22520BED40BEC8813BED41BED02BED40BEC88E7
S123DC4015BED41BE304ED04BDDBBE2503BDD95039C60B2002C60C1A0139EC881E5CE18819
S123DC603C2303C6014C10A38813260EA6883781FF27074CA788371CFE398D332530BED4EA
S123DC800BA6883A8B032616EC881E10A388112705C6171A0139EC8840ED88388604A788EE
S123DCA03AEC8813ED88358601A788371CFE39EC8838BDD62825F7BED40B1F12E6883A12AA
S123DCC03AC603A6A8353121A7884030015A26F3BDD6A724D97EDBD8BDD818BDD61425462E
S123DCE0BED40B4F5FED8820A68867A7883C5F6F884030015A26F8BED40B1CFE39BED40B74
S123DD00A68817271DEC88208300012A037EDDB2ED8820BDDAC8250E4624076F00A68817D8
S123DD202605C6121A01397FD411EC881110AE8820276ABDDDB725EE4F5F6D022774EB029F
S123DD408900BFD40FBED40B10A38820242CBED40F30033402B6D4114CB7D41181542708BB
S123DD6081A83502274C20D23404BED40BEC88408D45253E3504350220C0A38820BED40FE0
S123DD80A6023404A0E04A1F89A600EB01BED40B2505E1883C2306E0883C4C20F5BDD62846
S123DDA02514BED40BEC884210A388202714C6192002C6181A0139BDD6282508BED40BC6BF
S123DDC0443A1CFE39BED40BC60BA68824A70430015A26F639BED40BA6034C8104240FA732
S116DDE0032605BDDE0F2003BDDE1225E839C6101A013914
S120D3E1DE8EDE9ADE6DDE7AD3FDD3FDDE3EDE3EDE3EDE33DE3FDE5DDE4CDE433BC1
S123DE007EDEBB7EDED17EDEE77EDF0F7EDF247EDF687EDF7A7EDF0D7EDF0E7EDEFA0000C3
S123DE2000000000000000000000000000000000000000860A8D15860D8D117EFC0B393489
S123DE400235827DDEB92720AD9FDEB93402B6FE6D8420810027F73502B7FE68393402B6B4
S123DE60FE6D840181003582BDDE6D20DFB6FE6D8401810027F7B6FE6839338C35EE442788
S123DE800CA6D4A54627F610AEC46ED8023B34708D142704EF04AF2435F034708D0826042D
S123DEA0AE04AF4435F0338C0931C4AC442706EE4426F61CFB3900000100003402B6DE1F32
S123DEC08101270981022707C61F57358220F920F73402B6DE1F8101270981022707C61F87
S123DEE057358220F920F7B6DE1F8101270881022706C61F573920FA20F8B6DE1F810127C9
S123DF000881022706C61F573920FA20F839398D13B6DE1F8101270881022706C61F573903
S123DF2020FA20F83410A60381042505C61F5735908EDE233086E684C1012706C102270284
S123DF4020EAF7DE1FB7DE1E8EDE273086E684F7DE208EDE2B483086E684F7DE213001E658
S123DF6084F7DE22C6003590A6038101270881022706C61F573920FA20F8A603810127088C
S10FDF8081022706C61F573920FA20F83A
