S123C4002005822E893A818639B7D3FDCCCD03FDCC16FCD3F7FDCD4FFCD3F9FDCD10FDCDF3
S123C42013FCD3FBFDCD0AFDCD0DAD9FD3F58EC533BDCD1EBDCD24FCCC4E34068EC561BFBD
S123C440CC4EBDCD1EBDCD1B3506FDCC4E108ECC0E17008B25E117008625DC17008125D7CD
S123C460108ED37017007825CE17007325C917006E25C47FD373BDCD24BDDE153402865B35
S123C480BDCD0F35028EC840BDDE0F261B3402865DBDCD0F35028EC8408601A784BDD4067F
S123C4A02712A6018104264D34028621BDCD0F35027ECD0334028625BDCD0F3502108EC096
S123C4C08010BFCC14C680BDD40626295A2726A7A0810D26F28604A784BDD4067ECD06BD0F
S123C4E0CD483410250DA6A45D1A012704A6611CFEA7A035868EC520BDCD1E7ECD033414EC
S123C5008EC55E86042006800AA7848601AB828A30A784813922F03594AD9FD3F186023902
S123C52043616E27742072756E20535441525455502E04464C455820666F72204E68796FFC
S123C54064796E6520363830392056657273696F6E20322E393A32202D20000000004B1538
S123C560044461746520616E642054494D4520284D4D2F44442F59592048482F4D4D2F531E
S108C58053293F2004D3
S123C840FF0000007374617274757000747874001A5010CEC080FCDFDCBED0F034168E9934
S123C860AA108EC200C6FF1700B0BFD0F0BCD0F0261634041700A3F7D0F1C00124F6350429
S123C880170097F1D0F127014FA7A2270317FC6EC00124D33516FDFFFCBFD0F04F8EC100B1
S123C8A0F6DFDCC80F6F8BF6DFDDC80F6F8B8D725D27056FA05A26FB31348EFFF0C610A6FF
S123C8C0A0A7805A26F9B6CC2B484848485F830001FDCC2B17FC42BACC33F6DFD0C5F027E1
S123C8E0028A01F6E0052715C1FF2711F1E0C5260CF1E0452607F1E08526028A04BEE800DB
S123C90034108E99AABFE800BCE800351026028A10BFE800B7CC337ECD001F98880FB7FF00
S123C920FD39C60C108EDFD08EC1008CC200270DA68027F7A7A07CCC2B5A26EF398EC100D8
S115C9408CC110270CA68027F7A7A07CCC2B5A26EF39AB
