S116EFE0F3010010110070212001EDB0DBFE0E00CD0500FD
S123FC0010CEC0004F1F8B4FBDFD8CBDFD81863EBDFD8DBDFD9EBDFD8D8144271E814C27D1
S123FC2017814D273F815027528147272C863FBDFD8DBDFD817EFC0B7EFC8DBDFD7CBDFD4D
S123FC401E3410BDFD7CBDFD1E3510BDFD81BDFCC7BCFDAF2BF87EFC0BBDFD1EBDFD7CBE54
S123FC60FDAF6E84BDFD1EBDFD7CBDFD7ABDFD2C301FA784A18426477EFC0B10FFFDABBEB4
S123FC80FDABC609BDFD7A5A26FA7EFC0BBDFD9E815326F9BDFD9E81392729813126EE7FC4
S123FCA0FDADBDFD2C8002B7FDAE8D72BDFD2C7AFDAE2706A784300120F27CFDAD27CE8686
S123FCC03FBDFD8D7EFC0BBDFD63BDFD7C3410C610BDFD7A5A26FA3510BDFD7C863ABDFD05
S123FCE08DC610A60081202B0A817F2A06BDFD8D7EFCF8862EBDFD8D30015A26E6BDFD816B
S123FD0039BDFD9E3402BDFD8D350281302BB581392F0A81412BAD81462EA98007398D0C85
S123FD20B7FDAF8D07B7FDB0BEFDAF398DD3484848481F894D8DCA840F3404ABE01F894DAA
S123FD40FBFDADF7FDAD3944444444840F8B30813923028B077EFD8DA6008DEBA6008DEB0D
S123FD603001393410350234028DDC35028DDC350234028DD235028DD2398DDC86207EFD36
S123FD808D860DBDFD8D860ABDFD8D39393402B6FE6D8420810027F73502B7FE6839B6FED4
S114FDA06D8401810027F7B6FE683900000000000068
S105FFFEFC0001
